{
  "_format": "hh-sol-artifact-1",
  "contractName": "EIP4337Manager",
  "sourceName": "contracts/4337/samples/gnosis/EIP4337Manager.sol",
  "abi": [
    {
      "inputs": [
        {
          "internalType": "address",
          "name": "anEntryPoint",
          "type": "address"
        }
      ],
      "stateMutability": "nonpayable",
      "type": "constructor"
    },
    {
      "inputs": [],
      "name": "eip4337Fallback",
      "outputs": [
        {
          "internalType": "address",
          "name": "",
          "type": "address"
        }
      ],
      "stateMutability": "view",
      "type": "function"
    },
    {
      "inputs": [],
      "name": "entryPoint",
      "outputs": [
        {
          "internalType": "address",
          "name": "",
          "type": "address"
        }
      ],
      "stateMutability": "view",
      "type": "function"
    },
    {
      "inputs": [
        {
          "internalType": "address",
          "name": "to",
          "type": "address"
        },
        {
          "internalType": "uint256",
          "name": "value",
          "type": "uint256"
        },
        {
          "internalType": "bytes",
          "name": "data",
          "type": "bytes"
        },
        {
          "internalType": "enum Enum.Operation",
          "name": "operation",
          "type": "uint8"
        }
      ],
      "name": "executeAndRevert",
      "outputs": [],
      "stateMutability": "nonpayable",
      "type": "function"
    },
    {
      "inputs": [
        {
          "internalType": "contract Safe",
          "name": "safe",
          "type": "address"
        }
      ],
      "name": "getCurrentEIP4337Manager",
      "outputs": [
        {
          "internalType": "address",
          "name": "prev",
          "type": "address"
        },
        {
          "internalType": "address",
          "name": "manager",
          "type": "address"
        }
      ],
      "stateMutability": "view",
      "type": "function"
    },
    {
      "inputs": [],
      "name": "getNonce",
      "outputs": [
        {
          "internalType": "uint256",
          "name": "",
          "type": "uint256"
        }
      ],
      "stateMutability": "view",
      "type": "function"
    },
    {
      "inputs": [
        {
          "internalType": "address",
          "name": "prevModule",
          "type": "address"
        },
        {
          "internalType": "contract EIP4337Manager",
          "name": "oldManager",
          "type": "address"
        },
        {
          "internalType": "contract EIP4337Manager",
          "name": "newManager",
          "type": "address"
        }
      ],
      "name": "replaceEIP4337Manager",
      "outputs": [],
      "stateMutability": "nonpayable",
      "type": "function"
    },
    {
      "inputs": [
        {
          "internalType": "contract EIP4337Manager",
          "name": "manager",
          "type": "address"
        }
      ],
      "name": "setup4337Modules",
      "outputs": [],
      "stateMutability": "nonpayable",
      "type": "function"
    },
    {
      "inputs": [
        {
          "internalType": "contract Safe",
          "name": "safe",
          "type": "address"
        },
        {
          "internalType": "contract EIP4337Manager",
          "name": "manager",
          "type": "address"
        }
      ],
      "name": "validateEip4337",
      "outputs": [],
      "stateMutability": "nonpayable",
      "type": "function"
    },
    {
      "inputs": [
        {
          "components": [
            {
              "internalType": "address",
              "name": "sender",
              "type": "address"
            },
            {
              "internalType": "uint256",
              "name": "nonce",
              "type": "uint256"
            },
            {
              "internalType": "bytes",
              "name": "initCode",
              "type": "bytes"
            },
            {
              "internalType": "bytes",
              "name": "callData",
              "type": "bytes"
            },
            {
              "internalType": "uint256",
              "name": "callGasLimit",
              "type": "uint256"
            },
            {
              "internalType": "uint256",
              "name": "verificationGasLimit",
              "type": "uint256"
            },
            {
              "internalType": "uint256",
              "name": "preVerificationGas",
              "type": "uint256"
            },
            {
              "internalType": "uint256",
              "name": "maxFeePerGas",
              "type": "uint256"
            },
            {
              "internalType": "uint256",
              "name": "maxPriorityFeePerGas",
              "type": "uint256"
            },
            {
              "internalType": "bytes",
              "name": "paymasterAndData",
              "type": "bytes"
            },
            {
              "internalType": "bytes",
              "name": "signature",
              "type": "bytes"
            }
          ],
          "internalType": "struct UserOperation",
          "name": "userOp",
          "type": "tuple"
        },
        {
          "internalType": "bytes32",
          "name": "userOpHash",
          "type": "bytes32"
        },
        {
          "internalType": "uint256",
          "name": "missingAccountFunds",
          "type": "uint256"
        }
      ],
      "name": "validateUserOp",
      "outputs": [
        {
          "internalType": "uint256",
          "name": "validationData",
          "type": "uint256"
        }
      ],
      "stateMutability": "nonpayable",
      "type": "function"
    }
  ],
  "bytecode": "0x60c06040523480156200001157600080fd5b506040516200572a3803806200572a833981810160405281019062000037919062000156565b8073ffffffffffffffffffffffffffffffffffffffff1660a08173ffffffffffffffffffffffffffffffffffffffff1681525050306040516200007a90620000de565b62000086919062000199565b604051809103906000f080158015620000a3573d6000803e3d6000fd5b5073ffffffffffffffffffffffffffffffffffffffff1660808173ffffffffffffffffffffffffffffffffffffffff168152505050620001b6565b61239f806200338b83390190565b600080fd5b600073ffffffffffffffffffffffffffffffffffffffff82169050919050565b60006200011e82620000f1565b9050919050565b620001308162000111565b81146200013c57600080fd5b50565b600081519050620001508162000125565b92915050565b6000602082840312156200016f576200016e620000ec565b5b60006200017f848285016200013f565b91505092915050565b620001938162000111565b82525050565b6000602082019050620001b0600083018462000188565b92915050565b60805160a051613193620001f86000396000818161035701528181610bb801528181610da501526111d6015260008181610b600152610c4601526131936000f3fe608060405234801561001057600080fd5b50600436106100935760003560e01c8063940d3c6011610066578063940d3c6014610133578063b0d691fe1461014f578063d041593b1461016d578063d087d28814610189578063efae6e06146101a757610093565b8063039b1728146100985780633a871cdd146100c957806345b1e0ca146100f957806370b8a01d14610115575b600080fd5b6100b260048036038101906100ad9190611b90565b6101c3565b6040516100c0929190611bde565b60405180910390f35b6100e360048036038101906100de9190611c98565b61031f565b6040516100f09190611d16565b60405180910390f35b610113600480360381019061010e9190611d6f565b6105f9565b005b61011d610b5e565b60405161012a9190611daf565b60405180910390f35b61014d60048036038101906101489190611f61565b610b82565b005b610157610da3565b6040516101649190611daf565b60405180910390f35b61018760048036038101906101829190611fe4565b610dc7565b005b6101916111d2565b60405161019e9190611d16565b60405180910390f35b6101c160048036038101906101bc9190612011565b611276565b005b6000806001915060008373ffffffffffffffffffffffffffffffffffffffff1663cc2f8452600160646040518363ffffffff1660e01b81526004016102099291906120a9565b600060405180830381865afa158015610226573d6000803e3d6000fd5b505050506040513d6000823e3d601f19601f8201168201806040525081019061024f91906121af565b50905060005b81518110156103105760008282815181106102735761027261220b565b5b602002602001015190508073ffffffffffffffffffffffffffffffffffffffff16632bcadc246040518163ffffffff1660e01b8152600401602060405180830381865afa9250505080156102e557506040513d601f19601f820116820180604052508101906102e2919061223a565b60015b156102f9578581955095505050505061031a565b80945050808061030890612296565b915050610255565b5060008092509250505b915091565b6000806000366014600036905061033691906122de565b9080926103459392919061231c565b90610350919061239b565b60601c90507f000000000000000000000000000000000000000000000000000000000000000073ffffffffffffffffffffffffffffffffffffffff168173ffffffffffffffffffffffffffffffffffffffff16146103e3576040517f08c379a00000000000000000000000000000000000000000000000000000000081526004016103da90612457565b60405180910390fd5b600030905060006103f386611723565b9050600061045d8880610140019061040b9190612486565b8080601f016020809104026020016040519081016040528093929190818152602001838380828437600081840152601f19601f820116905080830192505050505050508361175390919063ffffffff16565b90506001600454146104a4576040517f08c379a000000000000000000000000000000000000000000000000000000000815260040161049b90612535565b60405180910390fd5b8273ffffffffffffffffffffffffffffffffffffffff16632f54bf6e826040518263ffffffff1660e01b81526004016104dd9190611daf565b602060405180830381865afa1580156104fa573d6000803e3d6000fd5b505050506040513d601f19601f8201168201806040525081019061051e919061258d565b61052757600194505b67ffffffffffffffff8016886020013510610577576040517f08c379a000000000000000000000000000000000000000000000000000000000815260040161056e90612606565b60405180910390fd5b60008611156105ee5760008473ffffffffffffffffffffffffffffffffffffffff16876040516105a690612657565b60006040518083038185875af1925050503d80600081146105e3576040519150601f19603f3d011682016040523d82523d6000602084013e6105e8565b606091505b50509050505b505050509392505050565b6000604167ffffffffffffffff81111561061657610615611e11565b5b6040519080825280601f01601f1916602001820160405280156106485781602001600182028036833780820191505090505b509050601b60f81b816040815181106106645761066361220b565b5b60200101907effffffffffffffffffffffffffffffffffffffffffffffffffffffffffffff1916908160001a905350600160f81b816002815181106106ac576106ab61220b565b5b60200101907effffffffffffffffffffffffffffffffffffffffffffffffffffffffffffff1916908160001a905350600160f81b816023815181106106f4576106f361220b565b5b60200101907effffffffffffffffffffffffffffffffffffffffffffffffffffffffffffff1916908160001a90535060008273ffffffffffffffffffffffffffffffffffffffff1663b0d691fe6040518163ffffffff1660e01b8152600401602060405180830381865afa158015610770573d6000803e3d6000fd5b505050506040513d601f19601f82011682018060405250810190610794919061223a565b73ffffffffffffffffffffffffffffffffffffffff166335567e1a8560006040518363ffffffff1660e01b81526004016107cf9291906126cb565b602060405180830381865afa1580156107ec573d6000803e3d6000fd5b505050506040513d601f19601f820116820180604052508101906108109190612709565b905060006040518061016001604052808673ffffffffffffffffffffffffffffffffffffffff16815260200183815260200160405180602001604052806000815250815260200160405180602001604052806000815250815260200160008152602001620f424081526020016000815260200160008152602001600081526020016040518060200160405280600081525081526020018481525090506000600167ffffffffffffffff8111156108c9576108c8611e11565b5b60405190808252806020026020018201604052801561090257816020015b6108ef611a9c565b8152602001906001900390816108e75790505b509050818160008151811061091a5761091961220b565b5b602002602001018190525060008573ffffffffffffffffffffffffffffffffffffffff1663b0d691fe6040518163ffffffff1660e01b8152600401602060405180830381865afa158015610972573d6000803e3d6000fd5b505050506040513d601f19601f82011682018060405250810190610996919061223a565b90508073ffffffffffffffffffffffffffffffffffffffff16631fad948c83336040518363ffffffff1660e01b81526004016109d39291906129b1565b600060405180830381600087803b1580156109ed57600080fd5b505af19250505080156109fe575060015b610b1a573d8060008114610a2e576040519150601f19603f3d011682016040523d82523d6000602084013e610a33565b606091505b506000604051602401610a469190612a6b565b6040516020818303038152906040527f220266b6000000000000000000000000000000000000000000000000000000007bffffffffffffffffffffffffffffffffffffffffffffffffffffffff19166020820180517bffffffffffffffffffffffffffffffffffffffffffffffffffffffff838183161783525050505080519060200120818051906020012014610b1457806040517f08c379a0000000000000000000000000000000000000000000000000000000008152600401610b0b9190612add565b60405180910390fd5b50610b55565b6040517f08c379a0000000000000000000000000000000000000000000000000000000008152600401610b4c90612b71565b60405180910390fd5b50505050505050565b7f000000000000000000000000000000000000000000000000000000000000000081565b6000803660146000369050610b9791906122de565b908092610ba69392919061231c565b90610bb1919061239b565b60601c90507f000000000000000000000000000000000000000000000000000000000000000073ffffffffffffffffffffffffffffffffffffffff168173ffffffffffffffffffffffffffffffffffffffff1614610c44576040517f08c379a0000000000000000000000000000000000000000000000000000000008152600401610c3b90612457565b60405180910390fd5b7f000000000000000000000000000000000000000000000000000000000000000073ffffffffffffffffffffffffffffffffffffffff163373ffffffffffffffffffffffffffffffffffffffff1614610cd2576040517f08c379a0000000000000000000000000000000000000000000000000000000008152600401610cc990612c03565b60405180910390fd5b6000610d01868686867fffffffffffffffffffffffffffffffffffffffffffffffffffffffffffffffff61177a565b90506000610d2e7fffffffffffffffffffffffffffffffffffffffffffffffffffffffffffffffff6117d3565b905081610d9a57604481511015610d4457600080fd5b60048101905080806020019051810190610d5e9190612cc4565b6040517f08c379a0000000000000000000000000000000000000000000000000000000008152600401610d919190612add565b60405180910390fd5b50505050505050565b7f000000000000000000000000000000000000000000000000000000000000000081565b60003090508073ffffffffffffffffffffffffffffffffffffffff16632d9ad53d8373ffffffffffffffffffffffffffffffffffffffff1663b0d691fe6040518163ffffffff1660e01b8152600401602060405180830381865afa158015610e33573d6000803e3d6000fd5b505050506040513d601f19601f82011682018060405250810190610e57919061223a565b6040518263ffffffff1660e01b8152600401610e739190611daf565b602060405180830381865afa158015610e90573d6000803e3d6000fd5b505050506040513d601f19601f82011682018060405250810190610eb4919061258d565b15610ef4576040517f08c379a0000000000000000000000000000000000000000000000000000000008152600401610eeb90612d7f565b60405180910390fd5b8073ffffffffffffffffffffffffffffffffffffffff16632d9ad53d8373ffffffffffffffffffffffffffffffffffffffff166370b8a01d6040518163ffffffff1660e01b8152600401602060405180830381865afa158015610f5b573d6000803e3d6000fd5b505050506040513d601f19601f82011682018060405250810190610f7f919061223a565b6040518263ffffffff1660e01b8152600401610f9b9190611daf565b602060405180830381865afa158015610fb8573d6000803e3d6000fd5b505050506040513d601f19601f82011682018060405250810190610fdc919061258d565b1561101c576040517f08c379a000000000000000000000000000000000000000000000000000000000815260040161101390612e11565b60405180910390fd5b8073ffffffffffffffffffffffffffffffffffffffff1663610b59258373ffffffffffffffffffffffffffffffffffffffff1663b0d691fe6040518163ffffffff1660e01b8152600401602060405180830381865afa158015611083573d6000803e3d6000fd5b505050506040513d601f19601f820116820180604052508101906110a7919061223a565b6040518263ffffffff1660e01b81526004016110c39190611daf565b600060405180830381600087803b1580156110dd57600080fd5b505af11580156110f1573d6000803e3d6000fd5b505050508073ffffffffffffffffffffffffffffffffffffffff1663610b59258373ffffffffffffffffffffffffffffffffffffffff166370b8a01d6040518163ffffffff1660e01b8152600401602060405180830381865afa15801561115c573d6000803e3d6000fd5b505050506040513d601f19601f82011682018060405250810190611180919061223a565b6040518263ffffffff1660e01b815260040161119c9190611daf565b600060405180830381600087803b1580156111b657600080fd5b505af11580156111ca573d6000803e3d6000fd5b505050505050565b60007f000000000000000000000000000000000000000000000000000000000000000073ffffffffffffffffffffffffffffffffffffffff166335567e1a3060006040518363ffffffff1660e01b81526004016112309291906126cb565b602060405180830381865afa15801561124d573d6000803e3d6000fd5b505050506040513d601f19601f820116820180604052508101906112719190612709565b905090565b600030905060008373ffffffffffffffffffffffffffffffffffffffff166370b8a01d6040518163ffffffff1660e01b8152600401602060405180830381865afa1580156112c8573d6000803e3d6000fd5b505050506040513d601f19601f820116820180604052508101906112ec919061223a565b90508173ffffffffffffffffffffffffffffffffffffffff16632d9ad53d826040518263ffffffff1660e01b81526004016113279190611daf565b602060405180830381865afa158015611344573d6000803e3d6000fd5b505050506040513d601f19601f82011682018060405250810190611368919061258d565b6113a7576040517f08c379a000000000000000000000000000000000000000000000000000000000815260040161139e90612ea3565b60405180910390fd5b8173ffffffffffffffffffffffffffffffffffffffff1663e009cfde828673ffffffffffffffffffffffffffffffffffffffff1663b0d691fe6040518163ffffffff1660e01b8152600401602060405180830381865afa15801561140f573d6000803e3d6000fd5b505050506040513d601f19601f82011682018060405250810190611433919061223a565b6040518363ffffffff1660e01b8152600401611450929190611bde565b600060405180830381600087803b15801561146a57600080fd5b505af115801561147e573d6000803e3d6000fd5b505050508173ffffffffffffffffffffffffffffffffffffffff1663e009cfde86836040518363ffffffff1660e01b81526004016114bd929190611bde565b600060405180830381600087803b1580156114d757600080fd5b505af11580156114eb573d6000803e3d6000fd5b5050505060008373ffffffffffffffffffffffffffffffffffffffff166370b8a01d6040518163ffffffff1660e01b8152600401602060405180830381865afa15801561153c573d6000803e3d6000fd5b505050506040513d601f19601f82011682018060405250810190611560919061223a565b90508273ffffffffffffffffffffffffffffffffffffffff1663610b59258573ffffffffffffffffffffffffffffffffffffffff1663b0d691fe6040518163ffffffff1660e01b8152600401602060405180830381865afa1580156115c9573d6000803e3d6000fd5b505050506040513d601f19601f820116820180604052508101906115ed919061223a565b6040518263ffffffff1660e01b81526004016116099190611daf565b600060405180830381600087803b15801561162357600080fd5b505af1158015611637573d6000803e3d6000fd5b505050508273ffffffffffffffffffffffffffffffffffffffff1663610b5925826040518263ffffffff1660e01b81526004016116749190611daf565b600060405180830381600087803b15801561168e57600080fd5b505af11580156116a2573d6000803e3d6000fd5b505050508273ffffffffffffffffffffffffffffffffffffffff1663f08a0323826040518263ffffffff1660e01b81526004016116df9190611daf565b600060405180830381600087803b1580156116f957600080fd5b505af115801561170d573d6000803e3d6000fd5b5050505061171b83856105f9565b505050505050565b6000816040516020016117369190612f3b565b604051602081830303815290604052805190602001209050919050565b60008060006117628585611803565b9150915061176f81611854565b819250505092915050565b600060018081111561178f5761178e612f61565b5b8360018111156117a2576117a1612f61565b5b036117ba576000808551602087018986f490506117ca565b600080855160208701888a87f190505b95945050505050565b60603d828111156117e2578290505b604051602082018101604052818152816000602083013e8092505050919050565b60008060418351036118445760008060006020860151925060408601519150606086015160001a9050611838878285856119ba565b9450945050505061184d565b60006002915091505b9250929050565b6000600481111561186857611867612f61565b5b81600481111561187b5761187a612f61565b5b03156119b7576001600481111561189557611894612f61565b5b8160048111156118a8576118a7612f61565b5b036118e8576040517f08c379a00000000000000000000000000000000000000000000000000000000081526004016118df90612fdc565b60405180910390fd5b600260048111156118fc576118fb612f61565b5b81600481111561190f5761190e612f61565b5b0361194f576040517f08c379a000000000000000000000000000000000000000000000000000000000815260040161194690613048565b60405180910390fd5b6003600481111561196357611962612f61565b5b81600481111561197657611975612f61565b5b036119b6576040517f08c379a00000000000000000000000000000000000000000000000000000000081526004016119ad906130da565b60405180910390fd5b5b50565b6000807f7fffffffffffffffffffffffffffffff5d576e7357a4501ddfe92f46681b20a08360001c11156119f5576000600391509150611a93565b600060018787878760405160008152602001604052604051611a1a9493929190613118565b6020604051602081039080840390855afa158015611a3c573d6000803e3d6000fd5b505050602060405103519050600073ffffffffffffffffffffffffffffffffffffffff168173ffffffffffffffffffffffffffffffffffffffff1603611a8a57600060019250925050611a93565b80600092509250505b94509492505050565b604051806101600160405280600073ffffffffffffffffffffffffffffffffffffffff168152602001600081526020016060815260200160608152602001600081526020016000815260200160008152602001600081526020016000815260200160608152602001606081525090565b6000604051905090565b600080fd5b600080fd5b600073ffffffffffffffffffffffffffffffffffffffff82169050919050565b6000611b4b82611b20565b9050919050565b6000611b5d82611b40565b9050919050565b611b6d81611b52565b8114611b7857600080fd5b50565b600081359050611b8a81611b64565b92915050565b600060208284031215611ba657611ba5611b16565b5b6000611bb484828501611b7b565b91505092915050565b6000611bc882611b20565b9050919050565b611bd881611bbd565b82525050565b6000604082019050611bf36000830185611bcf565b611c006020830184611bcf565b9392505050565b600080fd5b60006101608284031215611c2357611c22611c07565b5b81905092915050565b6000819050919050565b611c3f81611c2c565b8114611c4a57600080fd5b50565b600081359050611c5c81611c36565b92915050565b6000819050919050565b611c7581611c62565b8114611c8057600080fd5b50565b600081359050611c9281611c6c565b92915050565b600080600060608486031215611cb157611cb0611b16565b5b600084013567ffffffffffffffff811115611ccf57611cce611b1b565b5b611cdb86828701611c0c565b9350506020611cec86828701611c4d565b9250506040611cfd86828701611c83565b9150509250925092565b611d1081611c62565b82525050565b6000602082019050611d2b6000830184611d07565b92915050565b6000611d3c82611bbd565b9050919050565b611d4c81611d31565b8114611d5757600080fd5b50565b600081359050611d6981611d43565b92915050565b60008060408385031215611d8657611d85611b16565b5b6000611d9485828601611b7b565b9250506020611da585828601611d5a565b9150509250929050565b6000602082019050611dc46000830184611bcf565b92915050565b611dd381611bbd565b8114611dde57600080fd5b50565b600081359050611df081611dca565b92915050565b600080fd5b600080fd5b6000601f19601f8301169050919050565b7f4e487b7100000000000000000000000000000000000000000000000000000000600052604160045260246000fd5b611e4982611e00565b810181811067ffffffffffffffff82111715611e6857611e67611e11565b5b80604052505050565b6000611e7b611b0c565b9050611e878282611e40565b919050565b600067ffffffffffffffff821115611ea757611ea6611e11565b5b611eb082611e00565b9050602081019050919050565b82818337600083830152505050565b6000611edf611eda84611e8c565b611e71565b905082815260208101848484011115611efb57611efa611dfb565b5b611f06848285611ebd565b509392505050565b600082601f830112611f2357611f22611df6565b5b8135611f33848260208601611ecc565b91505092915050565b60028110611f4957600080fd5b50565b600081359050611f5b81611f3c565b92915050565b60008060008060808587031215611f7b57611f7a611b16565b5b6000611f8987828801611de1565b9450506020611f9a87828801611c83565b935050604085013567ffffffffffffffff811115611fbb57611fba611b1b565b5b611fc787828801611f0e565b9250506060611fd887828801611f4c565b91505092959194509250565b600060208284031215611ffa57611ff9611b16565b5b600061200884828501611d5a565b91505092915050565b60008060006060848603121561202a57612029611b16565b5b600061203886828701611de1565b935050602061204986828701611d5a565b925050604061205a86828701611d5a565b9150509250925092565b6000819050919050565b6000819050919050565b600061209361208e61208984612064565b61206e565b611c62565b9050919050565b6120a381612078565b82525050565b60006040820190506120be6000830185611bcf565b6120cb602083018461209a565b9392505050565b600067ffffffffffffffff8211156120ed576120ec611e11565b5b602082029050602081019050919050565b600080fd5b60008151905061211281611dca565b92915050565b600061212b612126846120d2565b611e71565b9050808382526020820190506020840283018581111561214e5761214d6120fe565b5b835b8181101561217757806121638882612103565b845260208401935050602081019050612150565b5050509392505050565b600082601f83011261219657612195611df6565b5b81516121a6848260208601612118565b91505092915050565b600080604083850312156121c6576121c5611b16565b5b600083015167ffffffffffffffff8111156121e4576121e3611b1b565b5b6121f085828601612181565b925050602061220185828601612103565b9150509250929050565b7f4e487b7100000000000000000000000000000000000000000000000000000000600052603260045260246000fd5b6000602082840312156122505761224f611b16565b5b600061225e84828501612103565b91505092915050565b7f4e487b7100000000000000000000000000000000000000000000000000000000600052601160045260246000fd5b60006122a182611c62565b91507fffffffffffffffffffffffffffffffffffffffffffffffffffffffffffffffff82036122d3576122d2612267565b5b600182019050919050565b60006122e982611c62565b91506122f483611c62565b92508282101561230757612306612267565b5b828203905092915050565b600080fd5b600080fd5b600080858511156123305761232f612312565b5b8386111561234157612340612317565b5b6001850283019150848603905094509492505050565b600082905092915050565b60007fffffffffffffffffffffffffffffffffffffffff00000000000000000000000082169050919050565b600082821b905092915050565b60006123a78383612357565b826123b28135612362565b925060148210156123f2576123ed7fffffffffffffffffffffffffffffffffffffffff0000000000000000000000008360140360080261238e565b831692505b505092915050565b600082825260208201905092915050565b7f6163636f756e743a206e6f742066726f6d20656e747279706f696e7400000000600082015250565b6000612441601c836123fa565b915061244c8261240b565b602082019050919050565b6000602082019050818103600083015261247081612434565b9050919050565b600080fd5b600080fd5b600080fd5b600080833560016020038436030381126124a3576124a2612477565b5b80840192508235915067ffffffffffffffff8211156124c5576124c461247c565b5b6020830192506001820236038313156124e1576124e0612481565b5b509250929050565b7f6163636f756e743a206f6e6c79207468726573686f6c64203100000000000000600082015250565b600061251f6019836123fa565b915061252a826124e9565b602082019050919050565b6000602082019050818103600083015261254e81612512565b9050919050565b60008115159050919050565b61256a81612555565b811461257557600080fd5b50565b60008151905061258781612561565b92915050565b6000602082840312156125a3576125a2611b16565b5b60006125b184828501612578565b91505092915050565b7f6163636f756e743a206e6f6e73657175656e7469616c206e6f6e636500000000600082015250565b60006125f0601c836123fa565b91506125fb826125ba565b602082019050919050565b6000602082019050818103600083015261261f816125e3565b9050919050565b600081905092915050565b50565b6000612641600083612626565b915061264c82612631565b600082019050919050565b600061266282612634565b9150819050919050565b6000819050919050565b600077ffffffffffffffffffffffffffffffffffffffffffffffff82169050919050565b60006126b56126b06126ab8461266c565b61206e565b612676565b9050919050565b6126c58161269a565b82525050565b60006040820190506126e06000830185611bcf565b6126ed60208301846126bc565b9392505050565b60008151905061270381611c6c565b92915050565b60006020828403121561271f5761271e611b16565b5b600061272d848285016126f4565b91505092915050565b600081519050919050565b600082825260208201905092915050565b6000819050602082019050919050565b61276b81611bbd565b82525050565b61277a81611c62565b82525050565b600081519050919050565b600082825260208201905092915050565b60005b838110156127ba57808201518184015260208101905061279f565b838111156127c9576000848401525b50505050565b60006127da82612780565b6127e4818561278b565b93506127f481856020860161279c565b6127fd81611e00565b840191505092915050565b6000610160830160008301516128216000860182612762565b5060208301516128346020860182612771565b506040830151848203604086015261284c82826127cf565b9150506060830151848203606086015261286682826127cf565b915050608083015161287b6080860182612771565b5060a083015161288e60a0860182612771565b5060c08301516128a160c0860182612771565b5060e08301516128b460e0860182612771565b506101008301516128c9610100860182612771565b506101208301518482036101208601526128e382826127cf565b9150506101408301518482036101408601526128ff82826127cf565b9150508091505092915050565b60006129188383612808565b905092915050565b6000602082019050919050565b600061293882612736565b6129428185612741565b93508360208202850161295485612752565b8060005b858110156129905784840389528151612971858261290c565b945061297c83612920565b925060208a01995050600181019050612958565b50829750879550505050505092915050565b6129ab81611b40565b82525050565b600060408201905081810360008301526129cb818561292d565b90506129da60208301846129a2565b9392505050565b600060ff82169050919050565b6000612a09612a046129ff8461266c565b61206e565b6129e1565b9050919050565b612a19816129ee565b82525050565b7f41413234207369676e6174757265206572726f72000000000000000000000000600082015250565b6000612a556014836123fa565b9150612a6082612a1f565b602082019050919050565b6000604082019050612a806000830184612a10565b8181036020830152612a9181612a48565b905092915050565b600081519050919050565b6000612aaf82612a99565b612ab981856123fa565b9350612ac981856020860161279c565b612ad281611e00565b840191505092915050565b60006020820190508181036000830152612af78184612aa4565b905092915050565b7f76616c6964617465456970343333373a2068616e646c654f7073206d7573742060008201527f6661696c00000000000000000000000000000000000000000000000000000000602082015250565b6000612b5b6024836123fa565b9150612b6682612aff565b604082019050919050565b60006020820190508181036000830152612b8a81612b4e565b9050919050565b7f6163636f756e743a206e6f742066726f6d204549503433333746616c6c62616360008201527f6b00000000000000000000000000000000000000000000000000000000000000602082015250565b6000612bed6021836123fa565b9150612bf882612b91565b604082019050919050565b60006020820190508181036000830152612c1c81612be0565b9050919050565b600067ffffffffffffffff821115612c3e57612c3d611e11565b5b612c4782611e00565b9050602081019050919050565b6000612c67612c6284612c23565b611e71565b905082815260208101848484011115612c8357612c82611dfb565b5b612c8e84828561279c565b509392505050565b600082601f830112612cab57612caa611df6565b5b8151612cbb848260208601612c54565b91505092915050565b600060208284031215612cda57612cd9611b16565b5b600082015167ffffffffffffffff811115612cf857612cf7611b1b565b5b612d0484828501612c96565b91505092915050565b7f7365747570343333374d6f64756c65733a20656e747279706f696e7420616c7260008201527f6561647920656e61626c65640000000000000000000000000000000000000000602082015250565b6000612d69602c836123fa565b9150612d7482612d0d565b604082019050919050565b60006020820190508181036000830152612d9881612d5c565b9050919050565b7f7365747570343333374d6f64756c65733a206569703433333746616c6c62616360008201527f6b20616c726561647920656e61626c6564000000000000000000000000000000602082015250565b6000612dfb6031836123fa565b9150612e0682612d9f565b604082019050919050565b60006020820190508181036000830152612e2a81612dee565b9050919050565b7f7265706c616365454950343333374d616e616765723a206f6c644d616e61676560008201527f72206973206e6f74206163746976650000000000000000000000000000000000602082015250565b6000612e8d602f836123fa565b9150612e9882612e31565b604082019050919050565b60006020820190508181036000830152612ebc81612e80565b9050919050565b600081905092915050565b7f19457468657265756d205369676e6564204d6573736167653a0a333200000000600082015250565b6000612f04601c83612ec3565b9150612f0f82612ece565b601c82019050919050565b6000819050919050565b612f35612f3082611c2c565b612f1a565b82525050565b6000612f4682612ef7565b9150612f528284612f24565b60208201915081905092915050565b7f4e487b7100000000000000000000000000000000000000000000000000000000600052602160045260246000fd5b7f45434453413a20696e76616c6964207369676e61747572650000000000000000600082015250565b6000612fc66018836123fa565b9150612fd182612f90565b602082019050919050565b60006020820190508181036000830152612ff581612fb9565b9050919050565b7f45434453413a20696e76616c6964207369676e6174757265206c656e67746800600082015250565b6000613032601f836123fa565b915061303d82612ffc565b602082019050919050565b6000602082019050818103600083015261306181613025565b9050919050565b7f45434453413a20696e76616c6964207369676e6174757265202773272076616c60008201527f7565000000000000000000000000000000000000000000000000000000000000602082015250565b60006130c46022836123fa565b91506130cf82613068565b604082019050919050565b600060208201905081810360008301526130f3816130b7565b9050919050565b61310381611c2c565b82525050565b613112816129e1565b82525050565b600060808201905061312d60008301876130fa565b61313a6020830186613109565b61314760408301856130fa565b61315460608301846130fa565b9594505050505056fea2646970667358221220175ed33fada0b6d07e6eecdf0c7e6eb3aa2f09acda5fe6accb25b205da5f856164736f6c634300080f003360a06040523480156200001157600080fd5b506040516200239f3803806200239f8339818101604052810190620000379190620000dc565b8073ffffffffffffffffffffffffffffffffffffffff1660808173ffffffffffffffffffffffffffffffffffffffff1681525050506200010e565b600080fd5b600073ffffffffffffffffffffffffffffffffffffffff82169050919050565b6000620000a48262000077565b9050919050565b620000b68162000097565b8114620000c257600080fd5b50565b600081519050620000d681620000ab565b92915050565b600060208284031215620000f557620000f462000072565b5b60006200010584828501620000c5565b91505092915050565b60805161226e620001316000396000818161084c0152610a98015261226e6000f3fe608060405234801561001057600080fd5b50600436106100ff5760003560e01c80633a871cdd11610097578063bc197c8111610066578063bc197c81146102f8578063bd61951d14610328578063d087d28814610358578063f23a6e6114610376576100ff565b80633a871cdd1461025e5780636ac247841461028e578063940d3c60146102be578063b2494df3146102da576100ff565b80631626ba7e116100d35780631626ba7e146101b057806320c13b0b146101e057806323031640146102105780632bcadc2414610240576100ff565b806223de291461010457806301ffc9a7146101205780630a1028c414610150578063150b7a0214610180575b600080fd5b61011e60048036038101906101199190610ee5565b6103a6565b005b61013a6004803603810190610135919061100c565b6103b0565b6040516101479190611054565b60405180910390f35b61016a600480360381019061016591906111b0565b6104ea565b6040516101779190611212565b60405180910390f35b61019a6004803603810190610195919061122d565b6104fd565b6040516101a791906112c4565b60405180910390f35b6101ca60048036038101906101c5919061130b565b610512565b6040516101d791906112c4565b60405180910390f35b6101fa60048036038101906101f59190611367565b6105e1565b60405161020791906112c4565b60405180910390f35b61022a6004803603810190610225919061142f565b61074c565b6040516102379190611513565b60405180910390f35b61024861084a565b6040516102559190611544565b60405180910390f35b61027860048036038101906102739190611584565b61086e565b6040516102859190611602565b60405180910390f35b6102a860048036038101906102a3919061142f565b610899565b6040516102b59190611212565b60405180910390f35b6102d860048036038101906102d39190611642565b6108b4565b005b6102e26108c3565b6040516102ef9190611783565b60405180910390f35b610312600480360381019061030d91906117fb565b61095a565b60405161031f91906112c4565b60405180910390f35b610342600480360381019061033d91906118d7565b610972565b60405161034f9190611513565b60405180910390f35b6103606109dc565b60405161036d9190611602565b60405180910390f35b610390600480360381019061038b9190611937565b610a03565b60405161039d91906112c4565b60405180910390f35b5050505050505050565b60007f4e2312e0000000000000000000000000000000000000000000000000000000007bffffffffffffffffffffffffffffffffffffffffffffffffffffffff1916827bffffffffffffffffffffffffffffffffffffffffffffffffffffffff1916148061047b57507f150b7a02000000000000000000000000000000000000000000000000000000007bffffffffffffffffffffffffffffffffffffffffffffffffffffffff1916827bffffffffffffffffffffffffffffffffffffffffffffffffffffffff1916145b806104e357507f01ffc9a7000000000000000000000000000000000000000000000000000000007bffffffffffffffffffffffffffffffffffffffffffffffffffffffff1916827bffffffffffffffffffffffffffffffffffffffffffffffffffffffff1916145b9050919050565b60006104f63383610899565b9050919050565b600063150b7a0260e01b905095945050505050565b60008061051e84610a19565b905060006105358483610a4990919063ffffffff16565b905060003390508073ffffffffffffffffffffffffffffffffffffffff16632f54bf6e836040518263ffffffff1660e01b81526004016105759190611544565b602060405180830381865afa158015610592573d6000803e3d6000fd5b505050506040513d601f19601f820116820180604052508101906105b691906119fd565b156105cd57631626ba7e60e01b93505050506105db565b63ffffffff60e01b93505050505b92915050565b60008033905060006105f3828661074c565b905060008180519060200120905060008551036106cb5760008373ffffffffffffffffffffffffffffffffffffffff16635ae6bd37836040518263ffffffff1660e01b81526004016106459190611212565b602060405180830381865afa158015610662573d6000803e3d6000fd5b505050506040513d601f19601f820116820180604052508101906106869190611a3f565b036106c6576040517f08c379a00000000000000000000000000000000000000000000000000000000081526004016106bd90611ac9565b60405180910390fd5b610739565b8273ffffffffffffffffffffffffffffffffffffffff1663934f3a118284886040518463ffffffff1660e01b815260040161070893929190611ae9565b60006040518083038186803b15801561072057600080fd5b505afa158015610734573d6000803e3d6000fd5b505050505b6320c13b0b60e01b935050505092915050565b606060007f60b3cbf8b4a223d68d641b3b6ddf9a298e7f33710cf3d3a9d1146b5a6150fbca60001b838051906020012060405160200161078d929190611b2e565b604051602081830303815290604052805190602001209050601960f81b600160f81b8573ffffffffffffffffffffffffffffffffffffffff1663f698da256040518163ffffffff1660e01b8152600401602060405180830381865afa1580156107fa573d6000803e3d6000fd5b505050506040513d601f19601f8201168201806040525081019061081e9190611b6c565b836040516020016108329493929190611c07565b60405160208183030381529060405291505092915050565b7f000000000000000000000000000000000000000000000000000000000000000081565b600080610879610a70565b90508080602001905181019061088f9190611a3f565b9150509392505050565b60006108a5838361074c565b80519060200120905092915050565b6108bc610a70565b5050505050565b6060600033905060008173ffffffffffffffffffffffffffffffffffffffff1663cc2f84526001600a6040518363ffffffff1660e01b8152600401610909929190611c9a565b600060405180830381865afa158015610926573d6000803e3d6000fd5b505050506040513d6000823e3d601f19601f8201168201806040525081019061094f9190611d9b565b509050809250505090565b600063bc197c8160e01b905098975050505050505050565b60606040517fb4faba09000000000000000000000000000000000000000000000000000000008152600436036004808301376020600036836000335af15060203d036040519250808301604052806020843e6000516109d357825160208401fd5b50509392505050565b6000806109e7610a70565b9050808060200190518101906109fd9190611a3f565b91505090565b600063f23a6e6160e01b90509695505050505050565b600081604051602001610a2c9190611e4e565b604051602081830303815290604052805190602001209050919050565b6000806000610a588585610b3f565b91509150610a6581610b90565b819250505092915050565b606060003390506000808273ffffffffffffffffffffffffffffffffffffffff16635229073f7f00000000000000000000000000000000000000000000000000000000000000006000803660016040518663ffffffff1660e01b8152600401610add959493929190611f53565b6000604051808303816000875af1158015610afc573d6000803e3d6000fd5b505050506040513d6000823e3d601f19601f82011682018060405250810190610b259190612011565b9150915081610b3657805160208201fd5b80935050505090565b6000806041835103610b805760008060006020860151925060408601519150606086015160001a9050610b7487828585610cf6565b94509450505050610b89565b60006002915091505b9250929050565b60006004811115610ba457610ba3611edc565b5b816004811115610bb757610bb6611edc565b5b0315610cf35760016004811115610bd157610bd0611edc565b5b816004811115610be457610be3611edc565b5b03610c24576040517f08c379a0000000000000000000000000000000000000000000000000000000008152600401610c1b906120b9565b60405180910390fd5b60026004811115610c3857610c37611edc565b5b816004811115610c4b57610c4a611edc565b5b03610c8b576040517f08c379a0000000000000000000000000000000000000000000000000000000008152600401610c8290612125565b60405180910390fd5b60036004811115610c9f57610c9e611edc565b5b816004811115610cb257610cb1611edc565b5b03610cf2576040517f08c379a0000000000000000000000000000000000000000000000000000000008152600401610ce9906121b7565b60405180910390fd5b5b50565b6000807f7fffffffffffffffffffffffffffffff5d576e7357a4501ddfe92f46681b20a08360001c1115610d31576000600391509150610dcf565b600060018787878760405160008152602001604052604051610d5694939291906121f3565b6020604051602081039080840390855afa158015610d78573d6000803e3d6000fd5b505050602060405103519050600073ffffffffffffffffffffffffffffffffffffffff168173ffffffffffffffffffffffffffffffffffffffff1603610dc657600060019250925050610dcf565b80600092509250505b94509492505050565b6000604051905090565b600080fd5b600080fd5b600073ffffffffffffffffffffffffffffffffffffffff82169050919050565b6000610e1782610dec565b9050919050565b610e2781610e0c565b8114610e3257600080fd5b50565b600081359050610e4481610e1e565b92915050565b6000819050919050565b610e5d81610e4a565b8114610e6857600080fd5b50565b600081359050610e7a81610e54565b92915050565b600080fd5b600080fd5b600080fd5b60008083601f840112610ea557610ea4610e80565b5b8235905067ffffffffffffffff811115610ec257610ec1610e85565b5b602083019150836001820283011115610ede57610edd610e8a565b5b9250929050565b60008060008060008060008060c0898b031215610f0557610f04610de2565b5b6000610f138b828c01610e35565b9850506020610f248b828c01610e35565b9750506040610f358b828c01610e35565b9650506060610f468b828c01610e6b565b955050608089013567ffffffffffffffff811115610f6757610f66610de7565b5b610f738b828c01610e8f565b945094505060a089013567ffffffffffffffff811115610f9657610f95610de7565b5b610fa28b828c01610e8f565b92509250509295985092959890939650565b60007fffffffff0000000000000000000000000000000000000000000000000000000082169050919050565b610fe981610fb4565b8114610ff457600080fd5b50565b60008135905061100681610fe0565b92915050565b60006020828403121561102257611021610de2565b5b600061103084828501610ff7565b91505092915050565b60008115159050919050565b61104e81611039565b82525050565b60006020820190506110696000830184611045565b92915050565b600080fd5b6000601f19601f8301169050919050565b7f4e487b7100000000000000000000000000000000000000000000000000000000600052604160045260246000fd5b6110bd82611074565b810181811067ffffffffffffffff821117156110dc576110db611085565b5b80604052505050565b60006110ef610dd8565b90506110fb82826110b4565b919050565b600067ffffffffffffffff82111561111b5761111a611085565b5b61112482611074565b9050602081019050919050565b82818337600083830152505050565b600061115361114e84611100565b6110e5565b90508281526020810184848401111561116f5761116e61106f565b5b61117a848285611131565b509392505050565b600082601f83011261119757611196610e80565b5b81356111a7848260208601611140565b91505092915050565b6000602082840312156111c6576111c5610de2565b5b600082013567ffffffffffffffff8111156111e4576111e3610de7565b5b6111f084828501611182565b91505092915050565b6000819050919050565b61120c816111f9565b82525050565b60006020820190506112276000830184611203565b92915050565b60008060008060006080868803121561124957611248610de2565b5b600061125788828901610e35565b955050602061126888828901610e35565b945050604061127988828901610e6b565b935050606086013567ffffffffffffffff81111561129a57611299610de7565b5b6112a688828901610e8f565b92509250509295509295909350565b6112be81610fb4565b82525050565b60006020820190506112d960008301846112b5565b92915050565b6112e8816111f9565b81146112f357600080fd5b50565b600081359050611305816112df565b92915050565b6000806040838503121561132257611321610de2565b5b6000611330858286016112f6565b925050602083013567ffffffffffffffff81111561135157611350610de7565b5b61135d85828601611182565b9150509250929050565b6000806040838503121561137e5761137d610de2565b5b600083013567ffffffffffffffff81111561139c5761139b610de7565b5b6113a885828601611182565b925050602083013567ffffffffffffffff8111156113c9576113c8610de7565b5b6113d585828601611182565b9150509250929050565b60006113ea82610dec565b9050919050565b60006113fc826113df565b9050919050565b61140c816113f1565b811461141757600080fd5b50565b60008135905061142981611403565b92915050565b6000806040838503121561144657611445610de2565b5b60006114548582860161141a565b925050602083013567ffffffffffffffff81111561147557611474610de7565b5b61148185828601611182565b9150509250929050565b600081519050919050565b600082825260208201905092915050565b60005b838110156114c55780820151818401526020810190506114aa565b838111156114d4576000848401525b50505050565b60006114e58261148b565b6114ef8185611496565b93506114ff8185602086016114a7565b61150881611074565b840191505092915050565b6000602082019050818103600083015261152d81846114da565b905092915050565b61153e81610e0c565b82525050565b60006020820190506115596000830184611535565b92915050565b600080fd5b6000610160828403121561157b5761157a61155f565b5b81905092915050565b60008060006060848603121561159d5761159c610de2565b5b600084013567ffffffffffffffff8111156115bb576115ba610de7565b5b6115c786828701611564565b93505060206115d8868287016112f6565b92505060406115e986828701610e6b565b9150509250925092565b6115fc81610e4a565b82525050565b600060208201905061161760008301846115f3565b92915050565b6002811061162a57600080fd5b50565b60008135905061163c8161161d565b92915050565b6000806000806080858703121561165c5761165b610de2565b5b600061166a87828801610e35565b945050602061167b87828801610e6b565b935050604085013567ffffffffffffffff81111561169c5761169b610de7565b5b6116a887828801611182565b92505060606116b98782880161162d565b91505092959194509250565b600081519050919050565b600082825260208201905092915050565b6000819050602082019050919050565b6116fa81610e0c565b82525050565b600061170c83836116f1565b60208301905092915050565b6000602082019050919050565b6000611730826116c5565b61173a81856116d0565b9350611745836116e1565b8060005b8381101561177657815161175d8882611700565b975061176883611718565b925050600181019050611749565b5085935050505092915050565b6000602082019050818103600083015261179d8184611725565b905092915050565b60008083601f8401126117bb576117ba610e80565b5b8235905067ffffffffffffffff8111156117d8576117d7610e85565b5b6020830191508360208202830111156117f4576117f3610e8a565b5b9250929050565b60008060008060008060008060a0898b03121561181b5761181a610de2565b5b60006118298b828c01610e35565b985050602061183a8b828c01610e35565b975050604089013567ffffffffffffffff81111561185b5761185a610de7565b5b6118678b828c016117a5565b9650965050606089013567ffffffffffffffff81111561188a57611889610de7565b5b6118968b828c016117a5565b9450945050608089013567ffffffffffffffff8111156118b9576118b8610de7565b5b6118c58b828c01610e8f565b92509250509295985092959890939650565b6000806000604084860312156118f0576118ef610de2565b5b60006118fe86828701610e35565b935050602084013567ffffffffffffffff81111561191f5761191e610de7565b5b61192b86828701610e8f565b92509250509250925092565b60008060008060008060a0878903121561195457611953610de2565b5b600061196289828a01610e35565b965050602061197389828a01610e35565b955050604061198489828a01610e6b565b945050606061199589828a01610e6b565b935050608087013567ffffffffffffffff8111156119b6576119b5610de7565b5b6119c289828a01610e8f565b92509250509295509295509295565b6119da81611039565b81146119e557600080fd5b50565b6000815190506119f7816119d1565b92915050565b600060208284031215611a1357611a12610de2565b5b6000611a21848285016119e8565b91505092915050565b600081519050611a3981610e54565b92915050565b600060208284031215611a5557611a54610de2565b5b6000611a6384828501611a2a565b91505092915050565b600082825260208201905092915050565b7f48617368206e6f7420617070726f766564000000000000000000000000000000600082015250565b6000611ab3601183611a6c565b9150611abe82611a7d565b602082019050919050565b60006020820190508181036000830152611ae281611aa6565b9050919050565b6000606082019050611afe6000830186611203565b8181036020830152611b1081856114da565b90508181036040830152611b2481846114da565b9050949350505050565b6000604082019050611b436000830185611203565b611b506020830184611203565b9392505050565b600081519050611b66816112df565b92915050565b600060208284031215611b8257611b81610de2565b5b6000611b9084828501611b57565b91505092915050565b60007fff0000000000000000000000000000000000000000000000000000000000000082169050919050565b6000819050919050565b611be0611bdb82611b99565b611bc5565b82525050565b6000819050919050565b611c01611bfc826111f9565b611be6565b82525050565b6000611c138287611bcf565b600182019150611c238286611bcf565b600182019150611c338285611bf0565b602082019150611c438284611bf0565b60208201915081905095945050505050565b6000819050919050565b6000819050919050565b6000611c84611c7f611c7a84611c55565b611c5f565b610e4a565b9050919050565b611c9481611c69565b82525050565b6000604082019050611caf6000830185611535565b611cbc6020830184611c8b565b9392505050565b600067ffffffffffffffff821115611cde57611cdd611085565b5b602082029050602081019050919050565b600081519050611cfe81610e1e565b92915050565b6000611d17611d1284611cc3565b6110e5565b90508083825260208201905060208402830185811115611d3a57611d39610e8a565b5b835b81811015611d635780611d4f8882611cef565b845260208401935050602081019050611d3c565b5050509392505050565b600082601f830112611d8257611d81610e80565b5b8151611d92848260208601611d04565b91505092915050565b60008060408385031215611db257611db1610de2565b5b600083015167ffffffffffffffff811115611dd057611dcf610de7565b5b611ddc85828601611d6d565b9250506020611ded85828601611cef565b9150509250929050565b600081905092915050565b7f19457468657265756d205369676e6564204d6573736167653a0a333200000000600082015250565b6000611e38601c83611df7565b9150611e4382611e02565b601c82019050919050565b6000611e5982611e2b565b9150611e658284611bf0565b60208201915081905092915050565b6000819050919050565b6000611e99611e94611e8f84611e74565b611c5f565b610e4a565b9050919050565b611ea981611e7e565b82525050565b6000611ebb8385611496565b9350611ec8838584611131565b611ed183611074565b840190509392505050565b7f4e487b7100000000000000000000000000000000000000000000000000000000600052602160045260246000fd5b60028110611f1c57611f1b611edc565b5b50565b6000819050611f2d82611f0b565b919050565b6000611f3d82611f1f565b9050919050565b611f4d81611f32565b82525050565b6000608082019050611f686000830188611535565b611f756020830187611ea0565b8181036040830152611f88818587611eaf565b9050611f976060830184611f44565b9695505050505050565b6000611fb4611faf84611100565b6110e5565b905082815260208101848484011115611fd057611fcf61106f565b5b611fdb8482856114a7565b509392505050565b600082601f830112611ff857611ff7610e80565b5b8151612008848260208601611fa1565b91505092915050565b6000806040838503121561202857612027610de2565b5b6000612036858286016119e8565b925050602083015167ffffffffffffffff81111561205757612056610de7565b5b61206385828601611fe3565b9150509250929050565b7f45434453413a20696e76616c6964207369676e61747572650000000000000000600082015250565b60006120a3601883611a6c565b91506120ae8261206d565b602082019050919050565b600060208201905081810360008301526120d281612096565b9050919050565b7f45434453413a20696e76616c6964207369676e6174757265206c656e67746800600082015250565b600061210f601f83611a6c565b915061211a826120d9565b602082019050919050565b6000602082019050818103600083015261213e81612102565b9050919050565b7f45434453413a20696e76616c6964207369676e6174757265202773272076616c60008201527f7565000000000000000000000000000000000000000000000000000000000000602082015250565b60006121a1602283611a6c565b91506121ac82612145565b604082019050919050565b600060208201905081810360008301526121d081612194565b9050919050565b600060ff82169050919050565b6121ed816121d7565b82525050565b60006080820190506122086000830187611203565b61221560208301866121e4565b6122226040830185611203565b61222f6060830184611203565b9594505050505056fea264697066735822122078a512d47336ca72585bae99e9e962d7a3512e92ae027dcba08a6b0a13807a5b64736f6c634300080f0033",
  "linkReferences": {},
  "deployedLinkReferences": {}
}