{
  "_format": "hh-sol-artifact-1",
  "contractName": "EntryPoint",
  "sourceName": "contracts/4337/core/EntryPoint.sol",
  "abi": [
    {
      "inputs": [
        {
          "internalType": "uint256",
          "name": "preOpGas",
          "type": "uint256"
        },
        {
          "internalType": "uint256",
          "name": "paid",
          "type": "uint256"
        },
        {
          "internalType": "uint48",
          "name": "validAfter",
          "type": "uint48"
        },
        {
          "internalType": "uint48",
          "name": "validUntil",
          "type": "uint48"
        },
        {
          "internalType": "bool",
          "name": "targetSuccess",
          "type": "bool"
        },
        {
          "internalType": "bytes",
          "name": "targetResult",
          "type": "bytes"
        }
      ],
      "name": "ExecutionResult",
      "type": "error"
    },
    {
      "inputs": [
        {
          "internalType": "uint256",
          "name": "opIndex",
          "type": "uint256"
        },
        {
          "internalType": "string",
          "name": "reason",
          "type": "string"
        }
      ],
      "name": "FailedOp",
      "type": "error"
    },
    {
      "inputs": [
        {
          "internalType": "address",
          "name": "sender",
          "type": "address"
        }
      ],
      "name": "SenderAddressResult",
      "type": "error"
    },
    {
      "inputs": [
        {
          "internalType": "address",
          "name": "aggregator",
          "type": "address"
        }
      ],
      "name": "SignatureValidationFailed",
      "type": "error"
    },
    {
      "inputs": [
        {
          "components": [
            {
              "internalType": "uint256",
              "name": "preOpGas",
              "type": "uint256"
            },
            {
              "internalType": "uint256",
              "name": "prefund",
              "type": "uint256"
            },
            {
              "internalType": "bool",
              "name": "sigFailed",
              "type": "bool"
            },
            {
              "internalType": "uint48",
              "name": "validAfter",
              "type": "uint48"
            },
            {
              "internalType": "uint48",
              "name": "validUntil",
              "type": "uint48"
            },
            {
              "internalType": "bytes",
              "name": "paymasterContext",
              "type": "bytes"
            }
          ],
          "internalType": "struct IEntryPoint.ReturnInfo",
          "name": "returnInfo",
          "type": "tuple"
        },
        {
          "components": [
            {
              "internalType": "uint256",
              "name": "stake",
              "type": "uint256"
            },
            {
              "internalType": "uint256",
              "name": "unstakeDelaySec",
              "type": "uint256"
            }
          ],
          "internalType": "struct IStakeManager.StakeInfo",
          "name": "senderInfo",
          "type": "tuple"
        },
        {
          "components": [
            {
              "internalType": "uint256",
              "name": "stake",
              "type": "uint256"
            },
            {
              "internalType": "uint256",
              "name": "unstakeDelaySec",
              "type": "uint256"
            }
          ],
          "internalType": "struct IStakeManager.StakeInfo",
          "name": "factoryInfo",
          "type": "tuple"
        },
        {
          "components": [
            {
              "internalType": "uint256",
              "name": "stake",
              "type": "uint256"
            },
            {
              "internalType": "uint256",
              "name": "unstakeDelaySec",
              "type": "uint256"
            }
          ],
          "internalType": "struct IStakeManager.StakeInfo",
          "name": "paymasterInfo",
          "type": "tuple"
        }
      ],
      "name": "ValidationResult",
      "type": "error"
    },
    {
      "inputs": [
        {
          "components": [
            {
              "internalType": "uint256",
              "name": "preOpGas",
              "type": "uint256"
            },
            {
              "internalType": "uint256",
              "name": "prefund",
              "type": "uint256"
            },
            {
              "internalType": "bool",
              "name": "sigFailed",
              "type": "bool"
            },
            {
              "internalType": "uint48",
              "name": "validAfter",
              "type": "uint48"
            },
            {
              "internalType": "uint48",
              "name": "validUntil",
              "type": "uint48"
            },
            {
              "internalType": "bytes",
              "name": "paymasterContext",
              "type": "bytes"
            }
          ],
          "internalType": "struct IEntryPoint.ReturnInfo",
          "name": "returnInfo",
          "type": "tuple"
        },
        {
          "components": [
            {
              "internalType": "uint256",
              "name": "stake",
              "type": "uint256"
            },
            {
              "internalType": "uint256",
              "name": "unstakeDelaySec",
              "type": "uint256"
            }
          ],
          "internalType": "struct IStakeManager.StakeInfo",
          "name": "senderInfo",
          "type": "tuple"
        },
        {
          "components": [
            {
              "internalType": "uint256",
              "name": "stake",
              "type": "uint256"
            },
            {
              "internalType": "uint256",
              "name": "unstakeDelaySec",
              "type": "uint256"
            }
          ],
          "internalType": "struct IStakeManager.StakeInfo",
          "name": "factoryInfo",
          "type": "tuple"
        },
        {
          "components": [
            {
              "internalType": "uint256",
              "name": "stake",
              "type": "uint256"
            },
            {
              "internalType": "uint256",
              "name": "unstakeDelaySec",
              "type": "uint256"
            }
          ],
          "internalType": "struct IStakeManager.StakeInfo",
          "name": "paymasterInfo",
          "type": "tuple"
        },
        {
          "components": [
            {
              "internalType": "address",
              "name": "aggregator",
              "type": "address"
            },
            {
              "components": [
                {
                  "internalType": "uint256",
                  "name": "stake",
                  "type": "uint256"
                },
                {
                  "internalType": "uint256",
                  "name": "unstakeDelaySec",
                  "type": "uint256"
                }
              ],
              "internalType": "struct IStakeManager.StakeInfo",
              "name": "stakeInfo",
              "type": "tuple"
            }
          ],
          "internalType": "struct IEntryPoint.AggregatorStakeInfo",
          "name": "aggregatorInfo",
          "type": "tuple"
        }
      ],
      "name": "ValidationResultWithAggregation",
      "type": "error"
    },
    {
      "anonymous": false,
      "inputs": [
        {
          "indexed": true,
          "internalType": "bytes32",
          "name": "userOpHash",
          "type": "bytes32"
        },
        {
          "indexed": true,
          "internalType": "address",
          "name": "sender",
          "type": "address"
        },
        {
          "indexed": false,
          "internalType": "address",
          "name": "factory",
          "type": "address"
        },
        {
          "indexed": false,
          "internalType": "address",
          "name": "paymaster",
          "type": "address"
        }
      ],
      "name": "AccountDeployed",
      "type": "event"
    },
    {
      "anonymous": false,
      "inputs": [],
      "name": "BeforeExecution",
      "type": "event"
    },
    {
      "anonymous": false,
      "inputs": [
        {
          "indexed": true,
          "internalType": "address",
          "name": "account",
          "type": "address"
        },
        {
          "indexed": false,
          "internalType": "uint256",
          "name": "totalDeposit",
          "type": "uint256"
        }
      ],
      "name": "Deposited",
      "type": "event"
    },
    {
      "anonymous": false,
      "inputs": [
        {
          "indexed": true,
          "internalType": "address",
          "name": "aggregator",
          "type": "address"
        }
      ],
      "name": "SignatureAggregatorChanged",
      "type": "event"
    },
    {
      "anonymous": false,
      "inputs": [
        {
          "indexed": true,
          "internalType": "address",
          "name": "account",
          "type": "address"
        },
        {
          "indexed": false,
          "internalType": "uint256",
          "name": "totalStaked",
          "type": "uint256"
        },
        {
          "indexed": false,
          "internalType": "uint256",
          "name": "unstakeDelaySec",
          "type": "uint256"
        }
      ],
      "name": "StakeLocked",
      "type": "event"
    },
    {
      "anonymous": false,
      "inputs": [
        {
          "indexed": true,
          "internalType": "address",
          "name": "account",
          "type": "address"
        },
        {
          "indexed": false,
          "internalType": "uint256",
          "name": "withdrawTime",
          "type": "uint256"
        }
      ],
      "name": "StakeUnlocked",
      "type": "event"
    },
    {
      "anonymous": false,
      "inputs": [
        {
          "indexed": true,
          "internalType": "address",
          "name": "account",
          "type": "address"
        },
        {
          "indexed": false,
          "internalType": "address",
          "name": "withdrawAddress",
          "type": "address"
        },
        {
          "indexed": false,
          "internalType": "uint256",
          "name": "amount",
          "type": "uint256"
        }
      ],
      "name": "StakeWithdrawn",
      "type": "event"
    },
    {
      "anonymous": false,
      "inputs": [
        {
          "indexed": true,
          "internalType": "bytes32",
          "name": "userOpHash",
          "type": "bytes32"
        },
        {
          "indexed": true,
          "internalType": "address",
          "name": "sender",
          "type": "address"
        },
        {
          "indexed": true,
          "internalType": "address",
          "name": "paymaster",
          "type": "address"
        },
        {
          "indexed": false,
          "internalType": "uint256",
          "name": "nonce",
          "type": "uint256"
        },
        {
          "indexed": false,
          "internalType": "bool",
          "name": "success",
          "type": "bool"
        },
        {
          "indexed": false,
          "internalType": "uint256",
          "name": "actualGasCost",
          "type": "uint256"
        },
        {
          "indexed": false,
          "internalType": "uint256",
          "name": "actualGasUsed",
          "type": "uint256"
        }
      ],
      "name": "UserOperationEvent",
      "type": "event"
    },
    {
      "anonymous": false,
      "inputs": [
        {
          "indexed": true,
          "internalType": "bytes32",
          "name": "userOpHash",
          "type": "bytes32"
        },
        {
          "indexed": true,
          "internalType": "address",
          "name": "sender",
          "type": "address"
        },
        {
          "indexed": false,
          "internalType": "uint256",
          "name": "nonce",
          "type": "uint256"
        },
        {
          "indexed": false,
          "internalType": "bytes",
          "name": "revertReason",
          "type": "bytes"
        }
      ],
      "name": "UserOperationRevertReason",
      "type": "event"
    },
    {
      "anonymous": false,
      "inputs": [
        {
          "indexed": true,
          "internalType": "address",
          "name": "account",
          "type": "address"
        },
        {
          "indexed": false,
          "internalType": "address",
          "name": "withdrawAddress",
          "type": "address"
        },
        {
          "indexed": false,
          "internalType": "uint256",
          "name": "amount",
          "type": "uint256"
        }
      ],
      "name": "Withdrawn",
      "type": "event"
    },
    {
      "inputs": [],
      "name": "SIG_VALIDATION_FAILED",
      "outputs": [
        {
          "internalType": "uint256",
          "name": "",
          "type": "uint256"
        }
      ],
      "stateMutability": "view",
      "type": "function"
    },
    {
      "inputs": [
        {
          "internalType": "bytes",
          "name": "initCode",
          "type": "bytes"
        },
        {
          "internalType": "address",
          "name": "sender",
          "type": "address"
        },
        {
          "internalType": "bytes",
          "name": "paymasterAndData",
          "type": "bytes"
        }
      ],
      "name": "_validateSenderAndPaymaster",
      "outputs": [],
      "stateMutability": "view",
      "type": "function"
    },
    {
      "inputs": [
        {
          "internalType": "uint32",
          "name": "unstakeDelaySec",
          "type": "uint32"
        }
      ],
      "name": "addStake",
      "outputs": [],
      "stateMutability": "payable",
      "type": "function"
    },
    {
      "inputs": [
        {
          "internalType": "address",
          "name": "account",
          "type": "address"
        }
      ],
      "name": "balanceOf",
      "outputs": [
        {
          "internalType": "uint256",
          "name": "",
          "type": "uint256"
        }
      ],
      "stateMutability": "view",
      "type": "function"
    },
    {
      "inputs": [
        {
          "internalType": "address",
          "name": "account",
          "type": "address"
        }
      ],
      "name": "depositTo",
      "outputs": [],
      "stateMutability": "payable",
      "type": "function"
    },
    {
      "inputs": [
        {
          "internalType": "address",
          "name": "",
          "type": "address"
        }
      ],
      "name": "deposits",
      "outputs": [
        {
          "internalType": "uint112",
          "name": "deposit",
          "type": "uint112"
        },
        {
          "internalType": "bool",
          "name": "staked",
          "type": "bool"
        },
        {
          "internalType": "uint112",
          "name": "stake",
          "type": "uint112"
        },
        {
          "internalType": "uint32",
          "name": "unstakeDelaySec",
          "type": "uint32"
        },
        {
          "internalType": "uint48",
          "name": "withdrawTime",
          "type": "uint48"
        }
      ],
      "stateMutability": "view",
      "type": "function"
    },
    {
      "inputs": [
        {
          "internalType": "address",
          "name": "account",
          "type": "address"
        }
      ],
      "name": "getDepositInfo",
      "outputs": [
        {
          "components": [
            {
              "internalType": "uint112",
              "name": "deposit",
              "type": "uint112"
            },
            {
              "internalType": "bool",
              "name": "staked",
              "type": "bool"
            },
            {
              "internalType": "uint112",
              "name": "stake",
              "type": "uint112"
            },
            {
              "internalType": "uint32",
              "name": "unstakeDelaySec",
              "type": "uint32"
            },
            {
              "internalType": "uint48",
              "name": "withdrawTime",
              "type": "uint48"
            }
          ],
          "internalType": "struct IStakeManager.DepositInfo",
          "name": "info",
          "type": "tuple"
        }
      ],
      "stateMutability": "view",
      "type": "function"
    },
    {
      "inputs": [
        {
          "internalType": "address",
          "name": "sender",
          "type": "address"
        },
        {
          "internalType": "uint192",
          "name": "key",
          "type": "uint192"
        }
      ],
      "name": "getNonce",
      "outputs": [
        {
          "internalType": "uint256",
          "name": "nonce",
          "type": "uint256"
        }
      ],
      "stateMutability": "view",
      "type": "function"
    },
    {
      "inputs": [
        {
          "internalType": "bytes",
          "name": "initCode",
          "type": "bytes"
        }
      ],
      "name": "getSenderAddress",
      "outputs": [],
      "stateMutability": "nonpayable",
      "type": "function"
    },
    {
      "inputs": [
        {
          "components": [
            {
              "internalType": "address",
              "name": "sender",
              "type": "address"
            },
            {
              "internalType": "uint256",
              "name": "nonce",
              "type": "uint256"
            },
            {
              "internalType": "bytes",
              "name": "initCode",
              "type": "bytes"
            },
            {
              "internalType": "bytes",
              "name": "callData",
              "type": "bytes"
            },
            {
              "internalType": "uint256",
              "name": "callGasLimit",
              "type": "uint256"
            },
            {
              "internalType": "uint256",
              "name": "verificationGasLimit",
              "type": "uint256"
            },
            {
              "internalType": "uint256",
              "name": "preVerificationGas",
              "type": "uint256"
            },
            {
              "internalType": "uint256",
              "name": "maxFeePerGas",
              "type": "uint256"
            },
            {
              "internalType": "uint256",
              "name": "maxPriorityFeePerGas",
              "type": "uint256"
            },
            {
              "internalType": "bytes",
              "name": "paymasterAndData",
              "type": "bytes"
            },
            {
              "internalType": "bytes",
              "name": "signature",
              "type": "bytes"
            }
          ],
          "internalType": "struct UserOperation",
          "name": "userOp",
          "type": "tuple"
        }
      ],
      "name": "getUserOpHash",
      "outputs": [
        {
          "internalType": "bytes32",
          "name": "",
          "type": "bytes32"
        }
      ],
      "stateMutability": "view",
      "type": "function"
    },
    {
      "inputs": [
        {
          "components": [
            {
              "components": [
                {
                  "internalType": "address",
                  "name": "sender",
                  "type": "address"
                },
                {
                  "internalType": "uint256",
                  "name": "nonce",
                  "type": "uint256"
                },
                {
                  "internalType": "bytes",
                  "name": "initCode",
                  "type": "bytes"
                },
                {
                  "internalType": "bytes",
                  "name": "callData",
                  "type": "bytes"
                },
                {
                  "internalType": "uint256",
                  "name": "callGasLimit",
                  "type": "uint256"
                },
                {
                  "internalType": "uint256",
                  "name": "verificationGasLimit",
                  "type": "uint256"
                },
                {
                  "internalType": "uint256",
                  "name": "preVerificationGas",
                  "type": "uint256"
                },
                {
                  "internalType": "uint256",
                  "name": "maxFeePerGas",
                  "type": "uint256"
                },
                {
                  "internalType": "uint256",
                  "name": "maxPriorityFeePerGas",
                  "type": "uint256"
                },
                {
                  "internalType": "bytes",
                  "name": "paymasterAndData",
                  "type": "bytes"
                },
                {
                  "internalType": "bytes",
                  "name": "signature",
                  "type": "bytes"
                }
              ],
              "internalType": "struct UserOperation[]",
              "name": "userOps",
              "type": "tuple[]"
            },
            {
              "internalType": "contract IAggregator",
              "name": "aggregator",
              "type": "address"
            },
            {
              "internalType": "bytes",
              "name": "signature",
              "type": "bytes"
            }
          ],
          "internalType": "struct IEntryPoint.UserOpsPerAggregator[]",
          "name": "opsPerAggregator",
          "type": "tuple[]"
        },
        {
          "internalType": "address payable",
          "name": "beneficiary",
          "type": "address"
        }
      ],
      "name": "handleAggregatedOps",
      "outputs": [],
      "stateMutability": "nonpayable",
      "type": "function"
    },
    {
      "inputs": [
        {
          "components": [
            {
              "internalType": "address",
              "name": "sender",
              "type": "address"
            },
            {
              "internalType": "uint256",
              "name": "nonce",
              "type": "uint256"
            },
            {
              "internalType": "bytes",
              "name": "initCode",
              "type": "bytes"
            },
            {
              "internalType": "bytes",
              "name": "callData",
              "type": "bytes"
            },
            {
              "internalType": "uint256",
              "name": "callGasLimit",
              "type": "uint256"
            },
            {
              "internalType": "uint256",
              "name": "verificationGasLimit",
              "type": "uint256"
            },
            {
              "internalType": "uint256",
              "name": "preVerificationGas",
              "type": "uint256"
            },
            {
              "internalType": "uint256",
              "name": "maxFeePerGas",
              "type": "uint256"
            },
            {
              "internalType": "uint256",
              "name": "maxPriorityFeePerGas",
              "type": "uint256"
            },
            {
              "internalType": "bytes",
              "name": "paymasterAndData",
              "type": "bytes"
            },
            {
              "internalType": "bytes",
              "name": "signature",
              "type": "bytes"
            }
          ],
          "internalType": "struct UserOperation[]",
          "name": "ops",
          "type": "tuple[]"
        },
        {
          "internalType": "address payable",
          "name": "beneficiary",
          "type": "address"
        }
      ],
      "name": "handleOps",
      "outputs": [],
      "stateMutability": "nonpayable",
      "type": "function"
    },
    {
      "inputs": [
        {
          "internalType": "uint192",
          "name": "key",
          "type": "uint192"
        }
      ],
      "name": "incrementNonce",
      "outputs": [],
      "stateMutability": "nonpayable",
      "type": "function"
    },
    {
      "inputs": [
        {
          "internalType": "bytes",
          "name": "callData",
          "type": "bytes"
        },
        {
          "components": [
            {
              "components": [
                {
                  "internalType": "address",
                  "name": "sender",
                  "type": "address"
                },
                {
                  "internalType": "uint256",
                  "name": "nonce",
                  "type": "uint256"
                },
                {
                  "internalType": "uint256",
                  "name": "callGasLimit",
                  "type": "uint256"
                },
                {
                  "internalType": "uint256",
                  "name": "verificationGasLimit",
                  "type": "uint256"
                },
                {
                  "internalType": "uint256",
                  "name": "preVerificationGas",
                  "type": "uint256"
                },
                {
                  "internalType": "address",
                  "name": "paymaster",
                  "type": "address"
                },
                {
                  "internalType": "uint256",
                  "name": "maxFeePerGas",
                  "type": "uint256"
                },
                {
                  "internalType": "uint256",
                  "name": "maxPriorityFeePerGas",
                  "type": "uint256"
                }
              ],
              "internalType": "struct EntryPoint.MemoryUserOp",
              "name": "mUserOp",
              "type": "tuple"
            },
            {
              "internalType": "bytes32",
              "name": "userOpHash",
              "type": "bytes32"
            },
            {
              "internalType": "uint256",
              "name": "prefund",
              "type": "uint256"
            },
            {
              "internalType": "uint256",
              "name": "contextOffset",
              "type": "uint256"
            },
            {
              "internalType": "uint256",
              "name": "preOpGas",
              "type": "uint256"
            }
          ],
          "internalType": "struct EntryPoint.UserOpInfo",
          "name": "opInfo",
          "type": "tuple"
        },
        {
          "internalType": "bytes",
          "name": "context",
          "type": "bytes"
        }
      ],
      "name": "innerHandleOp",
      "outputs": [
        {
          "internalType": "uint256",
          "name": "actualGasCost",
          "type": "uint256"
        }
      ],
      "stateMutability": "nonpayable",
      "type": "function"
    },
    {
      "inputs": [
        {
          "internalType": "address",
          "name": "",
          "type": "address"
        },
        {
          "internalType": "uint192",
          "name": "",
          "type": "uint192"
        }
      ],
      "name": "nonceSequenceNumber",
      "outputs": [
        {
          "internalType": "uint256",
          "name": "",
          "type": "uint256"
        }
      ],
      "stateMutability": "view",
      "type": "function"
    },
    {
      "inputs": [
        {
          "components": [
            {
              "internalType": "address",
              "name": "sender",
              "type": "address"
            },
            {
              "internalType": "uint256",
              "name": "nonce",
              "type": "uint256"
            },
            {
              "internalType": "bytes",
              "name": "initCode",
              "type": "bytes"
            },
            {
              "internalType": "bytes",
              "name": "callData",
              "type": "bytes"
            },
            {
              "internalType": "uint256",
              "name": "callGasLimit",
              "type": "uint256"
            },
            {
              "internalType": "uint256",
              "name": "verificationGasLimit",
              "type": "uint256"
            },
            {
              "internalType": "uint256",
              "name": "preVerificationGas",
              "type": "uint256"
            },
            {
              "internalType": "uint256",
              "name": "maxFeePerGas",
              "type": "uint256"
            },
            {
              "internalType": "uint256",
              "name": "maxPriorityFeePerGas",
              "type": "uint256"
            },
            {
              "internalType": "bytes",
              "name": "paymasterAndData",
              "type": "bytes"
            },
            {
              "internalType": "bytes",
              "name": "signature",
              "type": "bytes"
            }
          ],
          "internalType": "struct UserOperation",
          "name": "op",
          "type": "tuple"
        },
        {
          "internalType": "address",
          "name": "target",
          "type": "address"
        },
        {
          "internalType": "bytes",
          "name": "targetCallData",
          "type": "bytes"
        }
      ],
      "name": "simulateHandleOp",
      "outputs": [],
      "stateMutability": "nonpayable",
      "type": "function"
    },
    {
      "inputs": [
        {
          "components": [
            {
              "internalType": "address",
              "name": "sender",
              "type": "address"
            },
            {
              "internalType": "uint256",
              "name": "nonce",
              "type": "uint256"
            },
            {
              "internalType": "bytes",
              "name": "initCode",
              "type": "bytes"
            },
            {
              "internalType": "bytes",
              "name": "callData",
              "type": "bytes"
            },
            {
              "internalType": "uint256",
              "name": "callGasLimit",
              "type": "uint256"
            },
            {
              "internalType": "uint256",
              "name": "verificationGasLimit",
              "type": "uint256"
            },
            {
              "internalType": "uint256",
              "name": "preVerificationGas",
              "type": "uint256"
            },
            {
              "internalType": "uint256",
              "name": "maxFeePerGas",
              "type": "uint256"
            },
            {
              "internalType": "uint256",
              "name": "maxPriorityFeePerGas",
              "type": "uint256"
            },
            {
              "internalType": "bytes",
              "name": "paymasterAndData",
              "type": "bytes"
            },
            {
              "internalType": "bytes",
              "name": "signature",
              "type": "bytes"
            }
          ],
          "internalType": "struct UserOperation",
          "name": "userOp",
          "type": "tuple"
        }
      ],
      "name": "simulateValidation",
      "outputs": [],
      "stateMutability": "nonpayable",
      "type": "function"
    },
    {
      "inputs": [],
      "name": "unlockStake",
      "outputs": [],
      "stateMutability": "nonpayable",
      "type": "function"
    },
    {
      "inputs": [
        {
          "internalType": "address payable",
          "name": "withdrawAddress",
          "type": "address"
        }
      ],
      "name": "withdrawStake",
      "outputs": [],
      "stateMutability": "nonpayable",
      "type": "function"
    },
    {
      "inputs": [
        {
          "internalType": "address payable",
          "name": "withdrawAddress",
          "type": "address"
        },
        {
          "internalType": "uint256",
          "name": "withdrawAmount",
          "type": "uint256"
        }
      ],
      "name": "withdrawTo",
      "outputs": [],
      "stateMutability": "nonpayable",
      "type": "function"
    },
    {
      "stateMutability": "payable",
      "type": "receive"
    }
  ],
  "bytecode": "0x60a060405260405162000012906200007e565b604051809103906000f0801580156200002f573d6000803e3d6000fd5b5073ffffffffffffffffffffffffffffffffffffffff1660809073ffffffffffffffffffffffffffffffffffffffff168152503480156200006f57600080fd5b5060016002819055506200008c565b610362806200754783390190565b608051617498620000af600039600081816118750152613c4001526174986000f3fe6080604052600436106101235760003560e01c80638f41ec5a116100a0578063bb9fe6bf11610064578063bb9fe6bf146103ff578063c23a5cea14610416578063d6383f941461043f578063ee21942314610468578063fc7e286d1461049157610133565b80638f41ec5a14610329578063957122ab146103545780639b249f691461037d578063a6193531146103a6578063b760faf9146103e357610133565b8063205c2878116100e7578063205c28781461022057806335567e1a146102495780634b1d7cf5146102865780635287ce12146102af57806370a08231146102ec57610133565b80630396cb60146101385780630bd28e3b146101545780631b2e01b81461017d5780631d732756146101ba5780631fad948c146101f757610133565b3661013357610131336104d2565b005b600080fd5b610152600480360381019061014d9190614092565b61058e565b005b34801561016057600080fd5b5061017b6004803603810190610176919061410f565b610945565b005b34801561018957600080fd5b506101a4600480360381019061019f919061419a565b6109e2565b6040516101b191906141f3565b60405180910390f35b3480156101c657600080fd5b506101e160048036038101906101dc9190614576565b610a07565b6040516101ee91906141f3565b60405180910390f35b34801561020357600080fd5b5061021e6004803603810190610219919061469c565b610bdb565b005b34801561022c57600080fd5b50610247600480360381019061024291906146fc565b610d6f565b005b34801561025557600080fd5b50610270600480360381019061026b919061419a565b610f94565b60405161027d91906141f3565b60405180910390f35b34801561029257600080fd5b506102ad60048036038101906102a89190614792565b611043565b005b3480156102bb57600080fd5b506102d660048036038101906102d191906147f2565b611578565b6040516102e391906148fb565b60405180910390f35b3480156102f857600080fd5b50610313600480360381019061030e91906147f2565b6116c5565b60405161032091906141f3565b60405180910390f35b34801561033557600080fd5b5061033e61173a565b60405161034b91906141f3565b60405180910390f35b34801561036057600080fd5b5061037b60048036038101906103769190614916565b61173f565b005b34801561038957600080fd5b506103a4600480360381019061039f91906149ab565b611871565b005b3480156103b257600080fd5b506103cd60048036038101906103c89190614a1d565b611950565b6040516103da9190614a75565b60405180910390f35b6103fd60048036038101906103f891906147f2565b6104d2565b005b34801561040b57600080fd5b5061041461198c565b005b34801561042257600080fd5b5061043d60048036038101906104389190614a90565b611b3c565b005b34801561044b57600080fd5b5061046660048036038101906104619190614abd565b611e3c565b005b34801561047457600080fd5b5061048f600480360381019061048a9190614a1d565b611f8c565b005b34801561049d57600080fd5b506104b860048036038101906104b391906147f2565b612219565b6040516104c9959493929190614b89565b60405180910390f35b6104dc81346122b2565b60008060008373ffffffffffffffffffffffffffffffffffffffff1673ffffffffffffffffffffffffffffffffffffffff16815260200190815260200160002090508173ffffffffffffffffffffffffffffffffffffffff167f2da466a7b24304f47e87fa2e1e5a81b9831ce54fec19055ce277ca2f39ba42c48260000160009054906101000a90046dffffffffffffffffffffffffffff166040516105829190614c17565b60405180910390a25050565b60008060003373ffffffffffffffffffffffffffffffffffffffff1673ffffffffffffffffffffffffffffffffffffffff168152602001908152602001600020905060008263ffffffff1611610619576040517f08c379a000000000000000000000000000000000000000000000000000000000815260040161061090614c8f565b60405180910390fd5b8060010160009054906101000a900463ffffffff1663ffffffff168263ffffffff16101561067c576040517f08c379a000000000000000000000000000000000000000000000000000000000815260040161067390614cfb565b60405180910390fd5b60003482600001600f9054906101000a90046dffffffffffffffffffffffffffff166dffffffffffffffffffffffffffff166106b89190614d4a565b9050600081116106fd576040517f08c379a00000000000000000000000000000000000000000000000000000000081526004016106f490614dec565b60405180910390fd5b6dffffffffffffffffffffffffffff8016811115610750576040517f08c379a000000000000000000000000000000000000000000000000000000000815260040161074790614e58565b60405180910390fd5b6040518060a001604052808360000160009054906101000a90046dffffffffffffffffffffffffffff166dffffffffffffffffffffffffffff168152602001600115158152602001826dffffffffffffffffffffffffffff1681526020018463ffffffff168152602001600065ffffffffffff168152506000803373ffffffffffffffffffffffffffffffffffffffff1673ffffffffffffffffffffffffffffffffffffffff16815260200190815260200160002060008201518160000160006101000a8154816dffffffffffffffffffffffffffff02191690836dffffffffffffffffffffffffffff160217905550602082015181600001600e6101000a81548160ff021916908315150217905550604082015181600001600f6101000a8154816dffffffffffffffffffffffffffff02191690836dffffffffffffffffffffffffffff16021790555060608201518160010160006101000a81548163ffffffff021916908363ffffffff16021790555060808201518160010160046101000a81548165ffffffffffff021916908365ffffffffffff1602179055509050503373ffffffffffffffffffffffffffffffffffffffff167fa5ae833d0bb1dcd632d98a8b70973e8516812898e19bf27b70071ebc8dc52c018285604051610938929190614ea9565b60405180910390a2505050565b600160003373ffffffffffffffffffffffffffffffffffffffff1673ffffffffffffffffffffffffffffffffffffffff16815260200190815260200160002060008277ffffffffffffffffffffffffffffffffffffffffffffffff1677ffffffffffffffffffffffffffffffffffffffffffffffff16815260200190815260200160002060008154809291906109da90614ed2565b919050555050565b6001602052816000526040600020602052806000526040600020600091509150505481565b6000805a90503073ffffffffffffffffffffffffffffffffffffffff163373ffffffffffffffffffffffffffffffffffffffff1614610a7b576040517f08c379a0000000000000000000000000000000000000000000000000000000008152600401610a7290614f66565b60405180910390fd5b60008560000151905060008160400151905061138882606001518201015a1015610ac9577fdeaddead0000000000000000000000000000000000000000000000000000000060005260206000fd5b60008089511115610b6d576000610ae7846000015160008c866123c2565b905080610b6b576000610afb6108006123db565b9050600081511115610b6557846000015173ffffffffffffffffffffffffffffffffffffffff168a602001517f1c4fada7374c0a9ee8841fc38afe82932dc0f8e69012e927f061a8bae611a201876020015184604051610b5c92919061500e565b60405180910390a35b60019250505b505b600088608001515a8603019050610bcc6000838b8b8b8080601f016020809104026020016040519081016040528093929190818152602001838380828437600081840152601f19601f820116905080830192505050505050508561240b565b95505050505050949350505050565b610be3612782565b600083839050905060008167ffffffffffffffff811115610c0757610c06614229565b5b604051908082528060200260200182016040528015610c4057816020015b610c2d613ed9565b815260200190600190039081610c255790505b50905060005b82811015610cc0576000828281518110610c6357610c6261503e565b5b60200260200101519050600080610c9f848a8a87818110610c8757610c8661503e565b5b9050602002810190610c99919061507c565b856127cf565b91509150610cb084838360006129cc565b5050508080600101915050610c46565b5060007fbb47ee3e183a558b1a2ff0874b079f3fc5478b7454eacf2bfc5af2ff5878f97260405160405180910390a160005b83811015610d5457610d4381888884818110610d1157610d1061503e565b5b9050602002810190610d23919061507c565b858481518110610d3657610d3561503e565b5b6020026020010151612b5f565b820191508080600101915050610cf2565b50610d5f8482612cb8565b505050610d6a612dd8565b505050565b60008060003373ffffffffffffffffffffffffffffffffffffffff1673ffffffffffffffffffffffffffffffffffffffff16815260200190815260200160002090508060000160009054906101000a90046dffffffffffffffffffffffffffff166dffffffffffffffffffffffffffff16821115610e22576040517f08c379a0000000000000000000000000000000000000000000000000000000008152600401610e19906150f1565b60405180910390fd5b818160000160009054906101000a90046dffffffffffffffffffffffffffff166dffffffffffffffffffffffffffff16610e5c9190615111565b8160000160006101000a8154816dffffffffffffffffffffffffffff02191690836dffffffffffffffffffffffffffff1602179055503373ffffffffffffffffffffffffffffffffffffffff167fd1c19fbcd4551a5edfb66d43d2e337c04837afda3482b42bdf569a8fccdae5fb8484604051610eda92919061519a565b60405180910390a260008373ffffffffffffffffffffffffffffffffffffffff1683604051610f08906151f4565b60006040518083038185875af1925050503d8060008114610f45576040519150601f19603f3d011682016040523d82523d6000602084013e610f4a565b606091505b5050905080610f8e576040517f08c379a0000000000000000000000000000000000000000000000000000000008152600401610f8590615255565b60405180910390fd5b50505050565b600060408277ffffffffffffffffffffffffffffffffffffffffffffffff16901b600160008573ffffffffffffffffffffffffffffffffffffffff1673ffffffffffffffffffffffffffffffffffffffff16815260200190815260200160002060008477ffffffffffffffffffffffffffffffffffffffffffffffff1677ffffffffffffffffffffffffffffffffffffffffffffffff1681526020019081526020016000205417905092915050565b61104b612782565b60008383905090506000805b8281101561123857368686838181106110735761107261503e565b5b90506020028101906110859190615275565b905036600082806000019061109a919061529d565b9150915060008360200160208101906110b3919061533e565b9050600173ffffffffffffffffffffffffffffffffffffffff168173ffffffffffffffffffffffffffffffffffffffff1603611124576040517f08c379a000000000000000000000000000000000000000000000000000000000815260040161111b906153b7565b60405180910390fd5b600073ffffffffffffffffffffffffffffffffffffffff168173ffffffffffffffffffffffffffffffffffffffff1614611210578073ffffffffffffffffffffffffffffffffffffffff1663e3563a4f848487806040019061118691906153d7565b6040518563ffffffff1660e01b81526004016111a594939291906157a0565b60006040518083038186803b1580156111bd57600080fd5b505afa9250505080156111ce575060015b61120f57806040517f86a9f75000000000000000000000000000000000000000000000000000000000815260040161120691906157ea565b60405180910390fd5b5b828290508661121f9190614d4a565b955050505050808061123090614ed2565b915050611057565b5060008167ffffffffffffffff81111561125557611254614229565b5b60405190808252806020026020018201604052801561128e57816020015b61127b613ed9565b8152602001906001900390816112735790505b5090507fbb47ee3e183a558b1a2ff0874b079f3fc5478b7454eacf2bfc5af2ff5878f97260405160405180910390a16000805b848110156113d057368888838181106112dd576112dc61503e565b5b90506020028101906112ef9190615275565b9050366000828060000190611304919061529d565b91509150600083602001602081019061131d919061533e565b9050600083839050905060005b818110156113b75760008989815181106113475761134661503e565b5b602002602001015190506000806113838b89898781811061136b5761136a61503e565b5b905060200281019061137d919061507c565b856127cf565b91509150611393848383896129cc565b8a8061139e90614ed2565b9b505050505080806113af90614ed2565b91505061132a565b50505050505080806113c890614ed2565b9150506112c1565b50600080915060005b8581101561151757368989838181106113f5576113f461503e565b5b90506020028101906114079190615275565b905080602001602081019061141c919061533e565b73ffffffffffffffffffffffffffffffffffffffff167f575ff3acadd5ab348fe1855e217e0f3678f8d767d7494c9f9fefbee2e17cca4d60405160405180910390a2366000828060000190611471919061529d565b91509150600082829050905060005b818110156114ff576114d18885858481811061149f5761149e61503e565b5b90506020028101906114b1919061507c565b8b8b815181106114c4576114c361503e565b5b6020026020010151612b5f565b876114dc9190614d4a565b965087806114e990614ed2565b98505080806114f790614ed2565b915050611480565b5050505050808061150f90614ed2565b9150506113d9565b50600073ffffffffffffffffffffffffffffffffffffffff167f575ff3acadd5ab348fe1855e217e0f3678f8d767d7494c9f9fefbee2e17cca4d60405160405180910390a26115668682612cb8565b5050505050611573612dd8565b505050565b611580613f11565b6000808373ffffffffffffffffffffffffffffffffffffffff1673ffffffffffffffffffffffffffffffffffffffff1681526020019081526020016000206040518060a00160405290816000820160009054906101000a90046dffffffffffffffffffffffffffff166dffffffffffffffffffffffffffff166dffffffffffffffffffffffffffff16815260200160008201600e9054906101000a900460ff1615151515815260200160008201600f9054906101000a90046dffffffffffffffffffffffffffff166dffffffffffffffffffffffffffff166dffffffffffffffffffffffffffff1681526020016001820160009054906101000a900463ffffffff1663ffffffff1663ffffffff1681526020016001820160049054906101000a900465ffffffffffff1665ffffffffffff1665ffffffffffff16815250509050919050565b60008060008373ffffffffffffffffffffffffffffffffffffffff1673ffffffffffffffffffffffffffffffffffffffff16815260200190815260200160002060000160009054906101000a90046dffffffffffffffffffffffffffff166dffffffffffffffffffffffffffff169050919050565b600181565b600085859050148015611769575060008373ffffffffffffffffffffffffffffffffffffffff163b145b156117a9576040517f08c379a00000000000000000000000000000000000000000000000000000000081526004016117a090615851565b60405180910390fd5b6014828290501061183657600082826000906014926117ca9392919061587b565b906117d591906158fa565b60601c905060008173ffffffffffffffffffffffffffffffffffffffff163b03611834576040517f08c379a000000000000000000000000000000000000000000000000000000000815260040161182b906159a5565b60405180910390fd5b505b6040517f08c379a0000000000000000000000000000000000000000000000000000000008152600401611868906159e8565b60405180910390fd5b60007f000000000000000000000000000000000000000000000000000000000000000073ffffffffffffffffffffffffffffffffffffffff1663570e1a3684846040518363ffffffff1660e01b81526004016118ce929190615a08565b6020604051808303816000875af11580156118ed573d6000803e3d6000fd5b505050506040513d601f19601f820116820180604052508101906119119190615a41565b9050806040517f6ca7b80600000000000000000000000000000000000000000000000000000000815260040161194791906157ea565b60405180910390fd5b600061195b82612de2565b304660405160200161196f93929190615a6e565b604051602081830303815290604052805190602001209050919050565b60008060003373ffffffffffffffffffffffffffffffffffffffff1673ffffffffffffffffffffffffffffffffffffffff168152602001908152602001600020905060008160010160009054906101000a900463ffffffff1663ffffffff1603611a2b576040517f08c379a0000000000000000000000000000000000000000000000000000000008152600401611a2290615af1565b60405180910390fd5b80600001600e9054906101000a900460ff16611a7c576040517f08c379a0000000000000000000000000000000000000000000000000000000008152600401611a7390615b5d565b60405180910390fd5b60008160010160009054906101000a900463ffffffff1663ffffffff1642611aa49190615b7d565b9050808260010160046101000a81548165ffffffffffff021916908365ffffffffffff160217905550600082600001600e6101000a81548160ff0219169083151502179055503373ffffffffffffffffffffffffffffffffffffffff167ffa9b3c14cc825c412c9ed81b3ba365a5b459439403f18829e572ed53a4180f0a82604051611b309190615bea565b60405180910390a25050565b60008060003373ffffffffffffffffffffffffffffffffffffffff1673ffffffffffffffffffffffffffffffffffffffff1681526020019081526020016000209050600081600001600f9054906101000a90046dffffffffffffffffffffffffffff166dffffffffffffffffffffffffffff16905060008111611bf4576040517f08c379a0000000000000000000000000000000000000000000000000000000008152600401611beb90615c51565b60405180910390fd5b60008260010160049054906101000a900465ffffffffffff1665ffffffffffff1611611c55576040517f08c379a0000000000000000000000000000000000000000000000000000000008152600401611c4c90615cbd565b60405180910390fd5b428260010160049054906101000a900465ffffffffffff1665ffffffffffff161115611cb6576040517f08c379a0000000000000000000000000000000000000000000000000000000008152600401611cad90615d29565b60405180910390fd5b60008260010160006101000a81548163ffffffff021916908363ffffffff16021790555060008260010160046101000a81548165ffffffffffff021916908365ffffffffffff160217905550600082600001600f6101000a8154816dffffffffffffffffffffffffffff02191690836dffffffffffffffffffffffffffff1602179055503373ffffffffffffffffffffffffffffffffffffffff167fb7c918e0e249f999e965cafeb6c664271b3f4317d296461500e71da39f0cbda38483604051611d8292919061519a565b60405180910390a260008373ffffffffffffffffffffffffffffffffffffffff1682604051611db0906151f4565b60006040518083038185875af1925050503d8060008114611ded576040519150601f19603f3d011682016040523d82523d6000602084013e611df2565b606091505b5050905080611e36576040517f08c379a0000000000000000000000000000000000000000000000000000000008152600401611e2d90615d95565b60405180910390fd5b50505050565b611e44613ed9565b611e4d85612dfb565b600080611e5c600088856127cf565b915091506000611e6c8383612f23565b9050611e76613036565b6000611e8460008a87612b5f565b9050611e8e613036565b60006060600073ffffffffffffffffffffffffffffffffffffffff168a73ffffffffffffffffffffffffffffffffffffffff1614611f39578973ffffffffffffffffffffffffffffffffffffffff168989604051611eed929190615dda565b6000604051808303816000865af19150503d8060008114611f2a576040519150601f19603f3d011682016040523d82523d6000602084013e611f2f565b606091505b5080925081935050505b8660800151838560200151866040015185856040517f8b7ac980000000000000000000000000000000000000000000000000000000008152600401611f8396959493929190615df3565b60405180910390fd5b611f94613ed9565b611f9d82612dfb565b600080611fac600085856127cf565b915091506000611fc3846000015160a0015161303c565b90506000611fd885600001516000015161303c565b9050611fe2613f70565b366000888060400190611ff591906153d7565b915091506000601483839050101561200e576000612031565b82826000906014926120229392919061587b565b9061202d91906158fa565b60601c5b905061203c8161303c565b9350505050600061204d8686612f23565b90506000816000015190506000600173ffffffffffffffffffffffffffffffffffffffff168273ffffffffffffffffffffffffffffffffffffffff1614905060006040518060c001604052808b6080015181526020018b6040015181526020018315158152602001856020015165ffffffffffff168152602001856040015165ffffffffffff1681526020016120e68c606001516130e8565b8152509050600073ffffffffffffffffffffffffffffffffffffffff168373ffffffffffffffffffffffffffffffffffffffff16141580156121555750600173ffffffffffffffffffffffffffffffffffffffff168373ffffffffffffffffffffffffffffffffffffffff1614155b156121d657600060405180604001604052808573ffffffffffffffffffffffffffffffffffffffff16815260200161218c8661303c565b81525090508187878a846040517ffaecb4e40000000000000000000000000000000000000000000000000000000081526004016121cd959493929190615faa565b60405180910390fd5b808686896040517fe0cff05f0000000000000000000000000000000000000000000000000000000081526004016122109493929190616005565b60405180910390fd5b60006020528060005260406000206000915090508060000160009054906101000a90046dffffffffffffffffffffffffffff169080600001600e9054906101000a900460ff169080600001600f9054906101000a90046dffffffffffffffffffffffffffff16908060010160009054906101000a900463ffffffff16908060010160049054906101000a900465ffffffffffff16905085565b60008060008473ffffffffffffffffffffffffffffffffffffffff1673ffffffffffffffffffffffffffffffffffffffff16815260200190815260200160002090506000828260000160009054906101000a90046dffffffffffffffffffffffffffff166dffffffffffffffffffffffffffff166123309190614d4a565b90506dffffffffffffffffffffffffffff8016811115612385576040517f08c379a000000000000000000000000000000000000000000000000000000000815260040161237c9061609d565b60405180910390fd5b808260000160006101000a8154816dffffffffffffffffffffffffffff02191690836dffffffffffffffffffffffffffff16021790555050505050565b6000806000845160208601878987f19050949350505050565b60603d828111156123ea578290505b604051602082018101604052818152816000602083013e8092505050919050565b6000805a9050600080866000015190506000612426826130f2565b905060008260a001519050600073ffffffffffffffffffffffffffffffffffffffff168173ffffffffffffffffffffffffffffffffffffffff16036124715782600001519350612661565b809350600088511115612660578187029550600280811115612496576124956160bd565b5b8a60028111156124a9576124a86160bd565b5b14612528578073ffffffffffffffffffffffffffffffffffffffff1663a9a2340984606001518c8b8a6040518563ffffffff1660e01b81526004016124f093929190616134565b600060405180830381600088803b15801561250a57600080fd5b5087f115801561251e573d6000803e3d6000fd5b505050505061265f565b8073ffffffffffffffffffffffffffffffffffffffff1663a9a2340984606001518c8b8a6040518563ffffffff1660e01b815260040161256a93929190616134565b600060405180830381600088803b15801561258457600080fd5b5087f193505050508015612596575060015b61265e576125a261617f565b806308c379a00361261f57506125b66161a1565b806125c15750612621565b8b816040516020016125d3919061629e565b6040516020818303038152906040526040517f220266b60000000000000000000000000000000000000000000000000000000081526004016126169291906162fd565b60405180910390fd5b505b8a6040517f220266b60000000000000000000000000000000000000000000000000000000081526004016126559190616379565b60405180910390fd5b5b5b5b5a850387019650818702955085896040015110156126b6578a6040517f220266b60000000000000000000000000000000000000000000000000000000081526004016126ad91906163f3565b60405180910390fd5b6000868a604001510390506126cb85826122b2565b60008060028111156126e0576126df6160bd565b5b8c60028111156126f3576126f26160bd565b5b1490508460a0015173ffffffffffffffffffffffffffffffffffffffff16856000015173ffffffffffffffffffffffffffffffffffffffff168c602001517f49628fd1471006c1482da88028e9ce4dbb080b815c9b0344d39e5a8e6ec1419f8860200151858d8f60405161276a9493929190616421565b60405180910390a45050505050505095945050505050565b60028054036127c6576040517f08c379a00000000000000000000000000000000000000000000000000000000081526004016127bd906164b2565b60405180910390fd5b60028081905550565b60008060005a90506000846000015190506127ea868261312c565b6127f386611950565b85602001818152505060008661010001358760e001358360400151846060015185608001511717171790506effffffffffffffffffffffffffffff8016811115612872576040517f08c379a00000000000000000000000000000000000000000000000000000000081526004016128699061651e565b60405180910390fd5b60008061287e846132d4565b905061288c8a8a8a84613345565b80985081935050506128a68460000151856020015161366e565b6128e757896040517f220266b60000000000000000000000000000000000000000000000000000000081526004016128de919061658a565b60405180910390fd5b6128ef613036565b6060600073ffffffffffffffffffffffffffffffffffffffff168560a0015173ffffffffffffffffffffffffffffffffffffffff161461293f576129368b8b8b858761372c565b80985081925050505b60005a87039050808b60a00135101561298f578b6040517f220266b60000000000000000000000000000000000000000000000000000000081526004016129869190616604565b60405180910390fd5b828a60400181815250506129a2826139ea565b8a60600181815250508a60c001355a8803018a608001818152505050505050505050935093915050565b6000806129d8856139f4565b915091508173ffffffffffffffffffffffffffffffffffffffff168373ffffffffffffffffffffffffffffffffffffffff1614612a4c57856040517f220266b6000000000000000000000000000000000000000000000000000000008152600401612a43919061667e565b60405180910390fd5b8015612a8f57856040517f220266b6000000000000000000000000000000000000000000000000000000008152600401612a8691906166f8565b60405180910390fd5b6000612a9a856139f4565b8093508192505050600073ffffffffffffffffffffffffffffffffffffffff168173ffffffffffffffffffffffffffffffffffffffff1614612b1357866040517f220266b6000000000000000000000000000000000000000000000000000000008152600401612b0a9190616772565b60405180910390fd5b8115612b5657866040517f220266b6000000000000000000000000000000000000000000000000000000008152600401612b4d9190616812565b60405180910390fd5b50505050505050565b6000805a90506000612b7484606001516130e8565b90503073ffffffffffffffffffffffffffffffffffffffff16631d732756868060600190612ba291906153d7565b87856040518563ffffffff1660e01b8152600401612bc3949392919061695e565b6020604051808303816000875af1925050508015612bff57506040513d601f19601f82011682018060405250810190612bfc91906169bc565b60015b612caa57600060206000803e60005190507fdeaddead000000000000000000000000000000000000000000000000000000008103612c7457866040517f220266b6000000000000000000000000000000000000000000000000000000008152600401612c6b9190616a35565b60405180910390fd5b600085608001515a85612c879190615111565b612c919190614d4a565b9050612ca188600288868561240b565b94505050612caf565b809350505b50509392505050565b600073ffffffffffffffffffffffffffffffffffffffff168273ffffffffffffffffffffffffffffffffffffffff1603612d27576040517f08c379a0000000000000000000000000000000000000000000000000000000008152600401612d1e90616aaf565b60405180910390fd5b60008273ffffffffffffffffffffffffffffffffffffffff1682604051612d4d906151f4565b60006040518083038185875af1925050503d8060008114612d8a576040519150601f19603f3d011682016040523d82523d6000602084013e612d8f565b606091505b5050905080612dd3576040517f08c379a0000000000000000000000000000000000000000000000000000000008152600401612dca90616b1b565b60405180910390fd5b505050565b6001600281905550565b6000612ded82613a4d565b805190602001209050919050565b3073ffffffffffffffffffffffffffffffffffffffff1663957122ab828060400190612e2791906153d7565b846000016020810190612e3a91906147f2565b85806101200190612e4b91906153d7565b6040518663ffffffff1660e01b8152600401612e6b959493929190616b3b565b60006040518083038186803b158015612e8357600080fd5b505afa925050508015612e94575060015b612f1f57612ea061617f565b806308c379a003612f0e5750612eb46161a1565b80612ebf5750612f10565b6000815114612f08576000816040517f220266b6000000000000000000000000000000000000000000000000000000008152600401612eff929190616bbf565b60405180910390fd5b50612f1a565b505b3d6000803e3d6000fd5b612f20565b5b50565b612f2b613f8a565b6000612f3684613b2b565b90506000612f4384613b2b565b9050600082600001519050600073ffffffffffffffffffffffffffffffffffffffff168173ffffffffffffffffffffffffffffffffffffffff1603612f8a57816000015190505b6000836020015190506000846040015190506000846020015190506000856040015190508165ffffffffffff168465ffffffffffff161015612fca578193505b8065ffffffffffff168365ffffffffffff161115612fe6578092505b60405180606001604052808673ffffffffffffffffffffffffffffffffffffffff1681526020018565ffffffffffff1681526020018465ffffffffffff1681525097505050505050505092915050565b43600052565b613044613f70565b60008060008473ffffffffffffffffffffffffffffffffffffffff1673ffffffffffffffffffffffffffffffffffffffff168152602001908152602001600020905080600001600f9054906101000a90046dffffffffffffffffffffffffffff166dffffffffffffffffffffffffffff168260000181815250508060010160009054906101000a900463ffffffff1663ffffffff1682602001818152505050919050565b6060819050919050565b6000808260c00151905060008360e001519050808203613116578192505050613127565b61312282488301613baf565b925050505b919050565b81600001602081019061313f91906147f2565b816000019073ffffffffffffffffffffffffffffffffffffffff16908173ffffffffffffffffffffffffffffffffffffffff1681525050816020013581602001818152505081608001358160400181815250508160a001358160600181815250508160c001358160800181815250508160e001358160c00181815250508161010001358160e0018181525050366000838061012001906131df91906153d7565b915091506000828290501115613294576014828290501015613236576040517f08c379a000000000000000000000000000000000000000000000000000000000815260040161322d90616c3b565b60405180910390fd5b818160009060149261324a9392919061587b565b9061325591906158fa565b60601c8360a0019073ffffffffffffffffffffffffffffffffffffffff16908173ffffffffffffffffffffffffffffffffffffffff16815250506132ce565b60008360a0019073ffffffffffffffffffffffffffffffffffffffff16908173ffffffffffffffffffffffffffffffffffffffff16815250505b50505050565b600080600073ffffffffffffffffffffffffffffffffffffffff168360a0015173ffffffffffffffffffffffffffffffffffffffff1603613316576001613319565b60035b60ff16905060008360800151828560600151028560400151010190508360c00151810292505050919050565b60008060005a905060008560000151905060008160000151905061337989888a806040019061337491906153d7565b613bc8565b60008260a00151905061338a613036565b60008073ffffffffffffffffffffffffffffffffffffffff168273ffffffffffffffffffffffffffffffffffffffff16036133e25760006133ca846116c5565b90508881116133db578089036133de565b60005b9150505b8273ffffffffffffffffffffffffffffffffffffffff16633a871cdd85606001518c8c60200151856040518563ffffffff1660e01b815260040161342893929190616dbf565b60206040518083038160008887f19350505050801561346557506040513d601f19601f8201168201806040525081019061346291906169bc565b60015b61352d5761347161617f565b806308c379a0036134ee57506134856161a1565b8061349057506134f0565b8b816040516020016134a29190616e23565b6040516020818303038152906040526040517f220266b60000000000000000000000000000000000000000000000000000000081526004016134e59291906162fd565b60405180910390fd5b505b8a6040517f220266b60000000000000000000000000000000000000000000000000000000081526004016135249190616e95565b60405180910390fd5b80965050600073ffffffffffffffffffffffffffffffffffffffff168273ffffffffffffffffffffffffffffffffffffffff160361365b5760008060008573ffffffffffffffffffffffffffffffffffffffff1673ffffffffffffffffffffffffffffffffffffffff168152602001908152602001600020905060008160000160009054906101000a90046dffffffffffffffffffffffffffff166dffffffffffffffffffffffffffff169050808a111561361f578c6040517f220266b60000000000000000000000000000000000000000000000000000000081526004016136169190616f0f565b60405180910390fd5b8981038260000160006101000a8154816dffffffffffffffffffffffffffff02191690836dffffffffffffffffffffffffffff16021790555050505b5a85039650505050505094509492505050565b600080604083901c905060008390508067ffffffffffffffff16600160008773ffffffffffffffffffffffffffffffffffffffff1673ffffffffffffffffffffffffffffffffffffffff16815260200190815260200160002060008477ffffffffffffffffffffffffffffffffffffffffffffffff1677ffffffffffffffffffffffffffffffffffffffffffffffff168152602001908152602001600020600081548092919061371d90614ed2565b91905055149250505092915050565b606060008085600001519050600081606001519050848111613783576040517f08c379a000000000000000000000000000000000000000000000000000000000815260040161377a90616f89565b60405180910390fd5b6000858203905060008360a00151905060008060008373ffffffffffffffffffffffffffffffffffffffff1673ffffffffffffffffffffffffffffffffffffffff168152602001908152602001600020905060008160000160009054906101000a90046dffffffffffffffffffffffffffff166dffffffffffffffffffffffffffff1690508981101561384d578c6040517f220266b60000000000000000000000000000000000000000000000000000000081526004016138449190616ff5565b60405180910390fd5b8981038260000160006101000a8154816dffffffffffffffffffffffffffff02191690836dffffffffffffffffffffffffffff1602179055508273ffffffffffffffffffffffffffffffffffffffff1663f465c77e858e8e602001518e6040518563ffffffff1660e01b81526004016138c893929190616dbf565b60006040518083038160008887f19350505050801561390a57506040513d6000823e3d601f19601f820116820180604052508101906139079190617093565b60015b6139d25761391661617f565b806308c379a003613993575061392a6161a1565b806139355750613995565b8d816040516020016139479190617115565b6040516020818303038152906040526040517f220266b600000000000000000000000000000000000000000000000000000000815260040161398a9291906162fd565b60405180910390fd5b505b8c6040517f220266b60000000000000000000000000000000000000000000000000000000081526004016139c99190617187565b60405180910390fd5b81995080985050505050505050509550959350505050565b6000819050919050565b60008060008303613a0b5760008091509150613a48565b6000613a1684613b2b565b9050806040015165ffffffffffff16421180613a3d5750806020015165ffffffffffff1642105b915080600001519250505b915091565b60606000613a5a83613eb2565b90506000836020013590506000613a7f858060400190613a7a91906153d7565b613ec2565b90506000613a9b868060600190613a9691906153d7565b613ec2565b905060008660800135905060008760a00135905060008860c00135905060008960e00135905060008a610100013590506000613ae68c806101200190613ae191906153d7565b613ec2565b905089898989898989898989604051602001613b0b9a999897969594939291906171b5565b6040516020818303038152906040529a5050505050505050505050919050565b613b33613f8a565b6000829050600060a084901c905060008165ffffffffffff1603613b5b5765ffffffffffff90505b600060d085901c905060405180606001604052808473ffffffffffffffffffffffffffffffffffffffff1681526020018265ffffffffffff1681526020018365ffffffffffff168152509350505050919050565b6000818310613bbe5781613bc0565b825b905092915050565b60008282905014613eac576000836000015160000151905060008173ffffffffffffffffffffffffffffffffffffffff163b14613c3c57846040517f220266b6000000000000000000000000000000000000000000000000000000008152600401613c33919061729d565b60405180910390fd5b60007f000000000000000000000000000000000000000000000000000000000000000073ffffffffffffffffffffffffffffffffffffffff1663570e1a3686600001516060015186866040518463ffffffff1660e01b8152600401613ca2929190615a08565b60206040518083038160008887f1158015613cc1573d6000803e3d6000fd5b50505050506040513d601f19601f82011682018060405250810190613ce69190615a41565b9050600073ffffffffffffffffffffffffffffffffffffffff168173ffffffffffffffffffffffffffffffffffffffff1603613d5957856040517f220266b6000000000000000000000000000000000000000000000000000000008152600401613d509190617317565b60405180910390fd5b8173ffffffffffffffffffffffffffffffffffffffff168173ffffffffffffffffffffffffffffffffffffffff1614613dc957856040517f220266b6000000000000000000000000000000000000000000000000000000008152600401613dc09190617391565b60405180910390fd5b60008173ffffffffffffffffffffffffffffffffffffffff163b03613e2557856040517f220266b6000000000000000000000000000000000000000000000000000000008152600401613e1c919061740b565b60405180910390fd5b60008484600090601492613e3b9392919061587b565b90613e4691906158fa565b60601c90508273ffffffffffffffffffffffffffffffffffffffff1686602001517fd51a9c61267aa6196961883ecf5ff2da6619c37dac0fa92122513fb32c032d2d83896000015160a00151604051613ea0929190617439565b60405180910390a35050505b50505050565b6000808235905080915050919050565b600060405182808583378082209250505092915050565b6040518060a00160405280613eec613fd1565b8152602001600080191681526020016000815260200160008152602001600081525090565b6040518060a0016040528060006dffffffffffffffffffffffffffff16815260200160001515815260200160006dffffffffffffffffffffffffffff168152602001600063ffffffff168152602001600065ffffffffffff1681525090565b604051806040016040528060008152602001600081525090565b6040518060600160405280600073ffffffffffffffffffffffffffffffffffffffff168152602001600065ffffffffffff168152602001600065ffffffffffff1681525090565b604051806101000160405280600073ffffffffffffffffffffffffffffffffffffffff16815260200160008152602001600081526020016000815260200160008152602001600073ffffffffffffffffffffffffffffffffffffffff16815260200160008152602001600081525090565b6000604051905090565b600080fd5b600080fd5b600063ffffffff82169050919050565b61406f81614056565b811461407a57600080fd5b50565b60008135905061408c81614066565b92915050565b6000602082840312156140a8576140a761404c565b5b60006140b68482850161407d565b91505092915050565b600077ffffffffffffffffffffffffffffffffffffffffffffffff82169050919050565b6140ec816140bf565b81146140f757600080fd5b50565b600081359050614109816140e3565b92915050565b6000602082840312156141255761412461404c565b5b6000614133848285016140fa565b91505092915050565b600073ffffffffffffffffffffffffffffffffffffffff82169050919050565b60006141678261413c565b9050919050565b6141778161415c565b811461418257600080fd5b50565b6000813590506141948161416e565b92915050565b600080604083850312156141b1576141b061404c565b5b60006141bf85828601614185565b92505060206141d0858286016140fa565b9150509250929050565b6000819050919050565b6141ed816141da565b82525050565b600060208201905061420860008301846141e4565b92915050565b600080fd5b600080fd5b6000601f19601f8301169050919050565b7f4e487b7100000000000000000000000000000000000000000000000000000000600052604160045260246000fd5b61426182614218565b810181811067ffffffffffffffff821117156142805761427f614229565b5b80604052505050565b6000614293614042565b905061429f8282614258565b919050565b600067ffffffffffffffff8211156142bf576142be614229565b5b6142c882614218565b9050602081019050919050565b82818337600083830152505050565b60006142f76142f2846142a4565b614289565b90508281526020810184848401111561431357614312614213565b5b61431e8482856142d5565b509392505050565b600082601f83011261433b5761433a61420e565b5b813561434b8482602086016142e4565b91505092915050565b600080fd5b614362816141da565b811461436d57600080fd5b50565b60008135905061437f81614359565b92915050565b6000610100828403121561439c5761439b614354565b5b6143a7610100614289565b905060006143b784828501614185565b60008301525060206143cb84828501614370565b60208301525060406143df84828501614370565b60408301525060606143f384828501614370565b606083015250608061440784828501614370565b60808301525060a061441b84828501614185565b60a08301525060c061442f84828501614370565b60c08301525060e061444384828501614370565b60e08301525092915050565b6000819050919050565b6144628161444f565b811461446d57600080fd5b50565b60008135905061447f81614459565b92915050565b6000610180828403121561449c5761449b614354565b5b6144a660a0614289565b905060006144b684828501614385565b6000830152506101006144cb84828501614470565b6020830152506101206144e084828501614370565b6040830152506101406144f584828501614370565b60608301525061016061450a84828501614370565b60808301525092915050565b600080fd5b600080fd5b60008083601f8401126145365761453561420e565b5b8235905067ffffffffffffffff81111561455357614552614516565b5b60208301915083600182028301111561456f5761456e61451b565b5b9250929050565b6000806000806101c085870312156145915761459061404c565b5b600085013567ffffffffffffffff8111156145af576145ae614051565b5b6145bb87828801614326565b94505060206145cc87828801614485565b9350506101a085013567ffffffffffffffff8111156145ee576145ed614051565b5b6145fa87828801614520565b925092505092959194509250565b60008083601f84011261461e5761461d61420e565b5b8235905067ffffffffffffffff81111561463b5761463a614516565b5b6020830191508360208202830111156146575761465661451b565b5b9250929050565b60006146698261413c565b9050919050565b6146798161465e565b811461468457600080fd5b50565b60008135905061469681614670565b92915050565b6000806000604084860312156146b5576146b461404c565b5b600084013567ffffffffffffffff8111156146d3576146d2614051565b5b6146df86828701614608565b935093505060206146f286828701614687565b9150509250925092565b600080604083850312156147135761471261404c565b5b600061472185828601614687565b925050602061473285828601614370565b9150509250929050565b60008083601f8401126147525761475161420e565b5b8235905067ffffffffffffffff81111561476f5761476e614516565b5b60208301915083602082028301111561478b5761478a61451b565b5b9250929050565b6000806000604084860312156147ab576147aa61404c565b5b600084013567ffffffffffffffff8111156147c9576147c8614051565b5b6147d58682870161473c565b935093505060206147e886828701614687565b9150509250925092565b6000602082840312156148085761480761404c565b5b600061481684828501614185565b91505092915050565b60006dffffffffffffffffffffffffffff82169050919050565b6148428161481f565b82525050565b60008115159050919050565b61485d81614848565b82525050565b61486c81614056565b82525050565b600065ffffffffffff82169050919050565b61488d81614872565b82525050565b60a0820160008201516148a96000850182614839565b5060208201516148bc6020850182614854565b5060408201516148cf6040850182614839565b5060608201516148e26060850182614863565b5060808201516148f56080850182614884565b50505050565b600060a0820190506149106000830184614893565b92915050565b6000806000806000606086880312156149325761493161404c565b5b600086013567ffffffffffffffff8111156149505761494f614051565b5b61495c88828901614520565b9550955050602061496f88828901614185565b935050604086013567ffffffffffffffff8111156149905761498f614051565b5b61499c88828901614520565b92509250509295509295909350565b600080602083850312156149c2576149c161404c565b5b600083013567ffffffffffffffff8111156149e0576149df614051565b5b6149ec85828601614520565b92509250509250929050565b600080fd5b60006101608284031215614a1457614a136149f8565b5b81905092915050565b600060208284031215614a3357614a3261404c565b5b600082013567ffffffffffffffff811115614a5157614a50614051565b5b614a5d848285016149fd565b91505092915050565b614a6f8161444f565b82525050565b6000602082019050614a8a6000830184614a66565b92915050565b600060208284031215614aa657614aa561404c565b5b6000614ab484828501614687565b91505092915050565b60008060008060608587031215614ad757614ad661404c565b5b600085013567ffffffffffffffff811115614af557614af4614051565b5b614b01878288016149fd565b9450506020614b1287828801614185565b935050604085013567ffffffffffffffff811115614b3357614b32614051565b5b614b3f87828801614520565b925092505092959194509250565b614b568161481f565b82525050565b614b6581614848565b82525050565b614b7481614056565b82525050565b614b8381614872565b82525050565b600060a082019050614b9e6000830188614b4d565b614bab6020830187614b5c565b614bb86040830186614b4d565b614bc56060830185614b6b565b614bd26080830184614b7a565b9695505050505050565b6000819050919050565b6000614c01614bfc614bf78461481f565b614bdc565b6141da565b9050919050565b614c1181614be6565b82525050565b6000602082019050614c2c6000830184614c08565b92915050565b600082825260208201905092915050565b7f6d757374207370656369667920756e7374616b652064656c6179000000000000600082015250565b6000614c79601a83614c32565b9150614c8482614c43565b602082019050919050565b60006020820190508181036000830152614ca881614c6c565b9050919050565b7f63616e6e6f7420646563726561736520756e7374616b652074696d6500000000600082015250565b6000614ce5601c83614c32565b9150614cf082614caf565b602082019050919050565b60006020820190508181036000830152614d1481614cd8565b9050919050565b7f4e487b7100000000000000000000000000000000000000000000000000000000600052601160045260246000fd5b6000614d55826141da565b9150614d60836141da565b9250827fffffffffffffffffffffffffffffffffffffffffffffffffffffffffffffffff03821115614d9557614d94614d1b565b5b828201905092915050565b7f6e6f207374616b65207370656369666965640000000000000000000000000000600082015250565b6000614dd6601283614c32565b9150614de182614da0565b602082019050919050565b60006020820190508181036000830152614e0581614dc9565b9050919050565b7f7374616b65206f766572666c6f77000000000000000000000000000000000000600082015250565b6000614e42600e83614c32565b9150614e4d82614e0c565b602082019050919050565b60006020820190508181036000830152614e7181614e35565b9050919050565b6000614e93614e8e614e8984614056565b614bdc565b6141da565b9050919050565b614ea381614e78565b82525050565b6000604082019050614ebe60008301856141e4565b614ecb6020830184614e9a565b9392505050565b6000614edd826141da565b91507fffffffffffffffffffffffffffffffffffffffffffffffffffffffffffffffff8203614f0f57614f0e614d1b565b5b600182019050919050565b7f4141393220696e7465726e616c2063616c6c206f6e6c79000000000000000000600082015250565b6000614f50601783614c32565b9150614f5b82614f1a565b602082019050919050565b60006020820190508181036000830152614f7f81614f43565b9050919050565b600081519050919050565b600082825260208201905092915050565b60005b83811015614fc0578082015181840152602081019050614fa5565b83811115614fcf576000848401525b50505050565b6000614fe082614f86565b614fea8185614f91565b9350614ffa818560208601614fa2565b61500381614218565b840191505092915050565b600060408201905061502360008301856141e4565b81810360208301526150358184614fd5565b90509392505050565b7f4e487b7100000000000000000000000000000000000000000000000000000000600052603260045260246000fd5b600080fd5b600080fd5b600080fd5b600082356001610160038336030381126150995761509861506d565b5b80830191505092915050565b7f576974686472617720616d6f756e7420746f6f206c6172676500000000000000600082015250565b60006150db601983614c32565b91506150e6826150a5565b602082019050919050565b6000602082019050818103600083015261510a816150ce565b9050919050565b600061511c826141da565b9150615127836141da565b92508282101561513a57615139614d1b565b5b828203905092915050565b600061516061515b6151568461413c565b614bdc565b61413c565b9050919050565b600061517282615145565b9050919050565b600061518482615167565b9050919050565b61519481615179565b82525050565b60006040820190506151af600083018561518b565b6151bc60208301846141e4565b9392505050565b600081905092915050565b50565b60006151de6000836151c3565b91506151e9826151ce565b600082019050919050565b60006151ff826151d1565b9150819050919050565b7f6661696c656420746f2077697468647261770000000000000000000000000000600082015250565b600061523f601283614c32565b915061524a82615209565b602082019050919050565b6000602082019050818103600083015261526e81615232565b9050919050565b6000823560016060038336030381126152915761529061506d565b5b80830191505092915050565b600080833560016020038436030381126152ba576152b961506d565b5b80840192508235915067ffffffffffffffff8211156152dc576152db615072565b5b6020830192506020820236038313156152f8576152f7615077565b5b509250929050565b600061530b8261415c565b9050919050565b61531b81615300565b811461532657600080fd5b50565b60008135905061533881615312565b92915050565b6000602082840312156153545761535361404c565b5b600061536284828501615329565b91505092915050565b7f4141393620696e76616c69642061676772656761746f72000000000000000000600082015250565b60006153a1601783614c32565b91506153ac8261536b565b602082019050919050565b600060208201905081810360008301526153d081615394565b9050919050565b600080833560016020038436030381126153f4576153f361506d565b5b80840192508235915067ffffffffffffffff82111561541657615415615072565b5b60208301925060018202360383131561543257615431615077565b5b509250929050565b600082825260208201905092915050565b6000819050919050565b60006154646020840184614185565b905092915050565b6154758161415c565b82525050565b600061548a6020840184614370565b905092915050565b61549b816141da565b82525050565b600080fd5b600080fd5b600080fd5b600080833560016020038436030381126154cd576154cc6154ab565b5b83810192508235915060208301925067ffffffffffffffff8211156154f5576154f46154a1565b5b60018202360383131561550b5761550a6154a6565b5b509250929050565b600082825260208201905092915050565b60006155308385615513565b935061553d8385846142d5565b61554683614218565b840190509392505050565b600061016083016155656000840184615455565b615572600086018261546c565b50615580602084018461547b565b61558d6020860182615492565b5061559b60408401846154b0565b85830360408701526155ae838284615524565b925050506155bf60608401846154b0565b85830360608701526155d2838284615524565b925050506155e3608084018461547b565b6155f06080860182615492565b506155fe60a084018461547b565b61560b60a0860182615492565b5061561960c084018461547b565b61562660c0860182615492565b5061563460e084018461547b565b61564160e0860182615492565b5061565061010084018461547b565b61565e610100860182615492565b5061566d6101208401846154b0565b858303610120870152615681838284615524565b925050506156936101408401846154b0565b8583036101408701526156a7838284615524565b925050508091505092915050565b60006156c18383615551565b905092915050565b600082356001610160038336030381126156e6576156e56154ab565b5b82810191505092915050565b6000602082019050919050565b600061570b838561543a565b93508360208402850161571d8461544b565b8060005b8781101561576157848403895261573882846156c9565b61574285826156b5565b945061574d836156f2565b925060208a01995050600181019050615721565b50829750879450505050509392505050565b600061577f8385614f91565b935061578c8385846142d5565b61579583614218565b840190509392505050565b600060408201905081810360008301526157bb8186886156ff565b905081810360208301526157d0818486615773565b905095945050505050565b6157e48161415c565b82525050565b60006020820190506157ff60008301846157db565b92915050565b7f41413230206163636f756e74206e6f74206465706c6f79656400000000000000600082015250565b600061583b601983614c32565b915061584682615805565b602082019050919050565b6000602082019050818103600083015261586a8161582e565b9050919050565b600080fd5b600080fd5b6000808585111561588f5761588e615871565b5b838611156158a05761589f615876565b5b6001850283019150848603905094509492505050565b600082905092915050565b60007fffffffffffffffffffffffffffffffffffffffff00000000000000000000000082169050919050565b600082821b905092915050565b600061590683836158b6565b8261591181356158c1565b925060148210156159515761594c7fffffffffffffffffffffffffffffffffffffffff000000000000000000000000836014036008026158ed565b831692505b505092915050565b7f41413330207061796d6173746572206e6f74206465706c6f7965640000000000600082015250565b600061598f601b83614c32565b915061599a82615959565b602082019050919050565b600060208201905081810360008301526159be81615982565b9050919050565b60006159d2600083614c32565b91506159dd826151ce565b600082019050919050565b60006020820190508181036000830152615a01816159c5565b9050919050565b60006020820190508181036000830152615a23818486615773565b90509392505050565b600081519050615a3b8161416e565b92915050565b600060208284031215615a5757615a5661404c565b5b6000615a6584828501615a2c565b91505092915050565b6000606082019050615a836000830186614a66565b615a9060208301856157db565b615a9d60408301846141e4565b949350505050565b7f6e6f74207374616b656400000000000000000000000000000000000000000000600082015250565b6000615adb600a83614c32565b9150615ae682615aa5565b602082019050919050565b60006020820190508181036000830152615b0a81615ace565b9050919050565b7f616c726561647920756e7374616b696e67000000000000000000000000000000600082015250565b6000615b47601183614c32565b9150615b5282615b11565b602082019050919050565b60006020820190508181036000830152615b7681615b3a565b9050919050565b6000615b8882614872565b9150615b9383614872565b92508265ffffffffffff03821115615bae57615bad614d1b565b5b828201905092915050565b6000615bd4615bcf615bca84614872565b614bdc565b6141da565b9050919050565b615be481615bb9565b82525050565b6000602082019050615bff6000830184615bdb565b92915050565b7f4e6f207374616b6520746f207769746864726177000000000000000000000000600082015250565b6000615c3b601483614c32565b9150615c4682615c05565b602082019050919050565b60006020820190508181036000830152615c6a81615c2e565b9050919050565b7f6d7573742063616c6c20756e6c6f636b5374616b652829206669727374000000600082015250565b6000615ca7601d83614c32565b9150615cb282615c71565b602082019050919050565b60006020820190508181036000830152615cd681615c9a565b9050919050565b7f5374616b65207769746864726177616c206973206e6f74206475650000000000600082015250565b6000615d13601b83614c32565b9150615d1e82615cdd565b602082019050919050565b60006020820190508181036000830152615d4281615d06565b9050919050565b7f6661696c656420746f207769746864726177207374616b650000000000000000600082015250565b6000615d7f601883614c32565b9150615d8a82615d49565b602082019050919050565b60006020820190508181036000830152615dae81615d72565b9050919050565b6000615dc183856151c3565b9350615dce8385846142d5565b82840190509392505050565b6000615de7828486615db5565b91508190509392505050565b600060c082019050615e0860008301896141e4565b615e1560208301886141e4565b615e226040830187614b7a565b615e2f6060830186614b7a565b615e3c6080830185614b5c565b81810360a0830152615e4e8184614fd5565b9050979650505050505050565b6000615e6682614f86565b615e708185615513565b9350615e80818560208601614fa2565b615e8981614218565b840191505092915050565b600060c083016000830151615eac6000860182615492565b506020830151615ebf6020860182615492565b506040830151615ed26040860182614854565b506060830151615ee56060860182614884565b506080830151615ef86080860182614884565b5060a083015184820360a0860152615f108282615e5b565b9150508091505092915050565b604082016000820151615f336000850182615492565b506020820151615f466020850182615492565b50505050565b604082016000820151615f626000850182615492565b506020820151615f756020850182615492565b50505050565b606082016000820151615f91600085018261546c565b506020820151615fa46020850182615f4c565b50505050565b6000610140820190508181036000830152615fc58188615e94565b9050615fd46020830187615f1d565b615fe16060830186615f1d565b615fee60a0830185615f1d565b615ffb60e0830184615f7b565b9695505050505050565b600060e082019050818103600083015261601f8187615e94565b905061602e6020830186615f1d565b61603b6060830185615f1d565b61604860a0830184615f1d565b95945050505050565b7f6465706f736974206f766572666c6f7700000000000000000000000000000000600082015250565b6000616087601083614c32565b915061609282616051565b602082019050919050565b600060208201905081810360008301526160b68161607a565b9050919050565b7f4e487b7100000000000000000000000000000000000000000000000000000000600052602160045260246000fd5b600381106160fd576160fc6160bd565b5b50565b600081905061610e826160ec565b919050565b600061611e82616100565b9050919050565b61612e81616113565b82525050565b60006060820190506161496000830186616125565b818103602083015261615b8185614fd5565b905061616a60408301846141e4565b949350505050565b60008160e01c9050919050565b600060033d111561619e5760046000803e61619b600051616172565b90505b90565b600060443d1061622e576161b3614042565b60043d036004823e80513d602482011167ffffffffffffffff821117156161db57505061622e565b808201805167ffffffffffffffff8111156161f9575050505061622e565b80602083010160043d03850181111561621657505050505061622e565b61622582602001850186614258565b82955050505050505b90565b7f4141353020706f73744f702072657665727465643a2000000000000000000000815250565b600081519050919050565b600081905092915050565b600061627882616257565b6162828185616262565b9350616292818560208601614fa2565b80840191505092915050565b60006162a982616231565b6016820191506162b9828461626d565b915081905092915050565b60006162cf82616257565b6162d98185614c32565b93506162e9818560208601614fa2565b6162f281614218565b840191505092915050565b600060408201905061631260008301856141e4565b818103602083015261632481846162c4565b90509392505050565b7f4141353020706f73744f70207265766572740000000000000000000000000000600082015250565b6000616363601283614c32565b915061636e8261632d565b602082019050919050565b600060408201905061638e60008301846141e4565b818103602083015261639f81616356565b905092915050565b7f414135312070726566756e642062656c6f772061637475616c476173436f7374600082015250565b60006163dd602083614c32565b91506163e8826163a7565b602082019050919050565b600060408201905061640860008301846141e4565b8181036020830152616419816163d0565b905092915050565b600060808201905061643660008301876141e4565b6164436020830186614b5c565b61645060408301856141e4565b61645d60608301846141e4565b95945050505050565b7f5265656e7472616e637947756172643a207265656e7472616e742063616c6c00600082015250565b600061649c601f83614c32565b91506164a782616466565b602082019050919050565b600060208201905081810360008301526164cb8161648f565b9050919050565b7f41413934206761732076616c756573206f766572666c6f770000000000000000600082015250565b6000616508601883614c32565b9150616513826164d2565b602082019050919050565b60006020820190508181036000830152616537816164fb565b9050919050565b7f4141323520696e76616c6964206163636f756e74206e6f6e6365000000000000600082015250565b6000616574601a83614c32565b915061657f8261653e565b602082019050919050565b600060408201905061659f60008301846141e4565b81810360208301526165b081616567565b905092915050565b7f41413430206f76657220766572696669636174696f6e4761734c696d69740000600082015250565b60006165ee601e83614c32565b91506165f9826165b8565b602082019050919050565b600060408201905061661960008301846141e4565b818103602083015261662a816165e1565b905092915050565b7f41413234207369676e6174757265206572726f72000000000000000000000000600082015250565b6000616668601483614c32565b915061667382616632565b602082019050919050565b600060408201905061669360008301846141e4565b81810360208301526166a48161665b565b905092915050565b7f414132322065787069726564206f72206e6f7420647565000000000000000000600082015250565b60006166e2601783614c32565b91506166ed826166ac565b602082019050919050565b600060408201905061670d60008301846141e4565b818103602083015261671e816166d5565b905092915050565b7f41413334207369676e6174757265206572726f72000000000000000000000000600082015250565b600061675c601483614c32565b915061676782616726565b602082019050919050565b600060408201905061678760008301846141e4565b81810360208301526167988161674f565b905092915050565b7f41413332207061796d61737465722065787069726564206f72206e6f7420647560008201527f6500000000000000000000000000000000000000000000000000000000000000602082015250565b60006167fc602183614c32565b9150616807826167a0565b604082019050919050565b600060408201905061682760008301846141e4565b8181036020830152616838816167ef565b905092915050565b61010082016000820151616857600085018261546c565b50602082015161686a6020850182615492565b50604082015161687d6040850182615492565b5060608201516168906060850182615492565b5060808201516168a36080850182615492565b5060a08201516168b660a085018261546c565b5060c08201516168c960c0850182615492565b5060e08201516168dc60e0850182615492565b50505050565b6168eb8161444f565b82525050565b610180820160008201516169086000850182616840565b50602082015161691c6101008501826168e2565b506040820151616930610120850182615492565b506060820151616944610140850182615492565b506080820151616958610160850182615492565b50505050565b60006101c082019050818103600083015261697a818688615773565b905061698960208301856168f1565b8181036101a083015261699c8184614fd5565b905095945050505050565b6000815190506169b681614359565b92915050565b6000602082840312156169d2576169d161404c565b5b60006169e0848285016169a7565b91505092915050565b7f41413935206f7574206f66206761730000000000000000000000000000000000600082015250565b6000616a1f600f83614c32565b9150616a2a826169e9565b602082019050919050565b6000604082019050616a4a60008301846141e4565b8181036020830152616a5b81616a12565b905092915050565b7f4141393020696e76616c69642062656e65666963696172790000000000000000600082015250565b6000616a99601883614c32565b9150616aa482616a63565b602082019050919050565b60006020820190508181036000830152616ac881616a8c565b9050919050565b7f41413931206661696c65642073656e6420746f2062656e656669636961727900600082015250565b6000616b05601f83614c32565b9150616b1082616acf565b602082019050919050565b60006020820190508181036000830152616b3481616af8565b9050919050565b60006060820190508181036000830152616b56818789615773565b9050616b6560208301866157db565b8181036040830152616b78818486615773565b90509695505050505050565b6000819050919050565b6000616ba9616ba4616b9f84616b84565b614bdc565b6141da565b9050919050565b616bb981616b8e565b82525050565b6000604082019050616bd46000830185616bb0565b8181036020830152616be681846162c4565b90509392505050565b7f4141393320696e76616c6964207061796d6173746572416e6444617461000000600082015250565b6000616c25601d83614c32565b9150616c3082616bef565b602082019050919050565b60006020820190508181036000830152616c5481616c18565b9050919050565b60006101608301616c6f6000840184615455565b616c7c600086018261546c565b50616c8a602084018461547b565b616c976020860182615492565b50616ca560408401846154b0565b8583036040870152616cb8838284615524565b92505050616cc960608401846154b0565b8583036060870152616cdc838284615524565b92505050616ced608084018461547b565b616cfa6080860182615492565b50616d0860a084018461547b565b616d1560a0860182615492565b50616d2360c084018461547b565b616d3060c0860182615492565b50616d3e60e084018461547b565b616d4b60e0860182615492565b50616d5a61010084018461547b565b616d68610100860182615492565b50616d776101208401846154b0565b858303610120870152616d8b838284615524565b92505050616d9d6101408401846154b0565b858303610140870152616db1838284615524565b925050508091505092915050565b60006060820190508181036000830152616dd98186616c5b565b9050616de86020830185614a66565b616df560408301846141e4565b949350505050565b7f414132332072657665727465643a200000000000000000000000000000000000815250565b6000616e2e82616dfd565b600f82019150616e3e828461626d565b915081905092915050565b7f4141323320726576657274656420286f72204f4f472900000000000000000000600082015250565b6000616e7f601683614c32565b9150616e8a82616e49565b602082019050919050565b6000604082019050616eaa60008301846141e4565b8181036020830152616ebb81616e72565b905092915050565b7f41413231206469646e2774207061792070726566756e64000000000000000000600082015250565b6000616ef9601783614c32565b9150616f0482616ec3565b602082019050919050565b6000604082019050616f2460008301846141e4565b8181036020830152616f3581616eec565b905092915050565b7f4141343120746f6f206c6974746c6520766572696669636174696f6e47617300600082015250565b6000616f73601f83614c32565b9150616f7e82616f3d565b602082019050919050565b60006020820190508181036000830152616fa281616f66565b9050919050565b7f41413331207061796d6173746572206465706f73697420746f6f206c6f770000600082015250565b6000616fdf601e83614c32565b9150616fea82616fa9565b602082019050919050565b600060408201905061700a60008301846141e4565b818103602083015261701b81616fd2565b905092915050565b6000617036617031846142a4565b614289565b90508281526020810184848401111561705257617051614213565b5b61705d848285614fa2565b509392505050565b600082601f83011261707a5761707961420e565b5b815161708a848260208601617023565b91505092915050565b600080604083850312156170aa576170a961404c565b5b600083015167ffffffffffffffff8111156170c8576170c7614051565b5b6170d485828601617065565b92505060206170e5858286016169a7565b9150509250929050565b7f414133332072657665727465643a200000000000000000000000000000000000815250565b6000617120826170ef565b600f82019150617130828461626d565b915081905092915050565b7f4141333320726576657274656420286f72204f4f472900000000000000000000600082015250565b6000617171601683614c32565b915061717c8261713b565b602082019050919050565b600060408201905061719c60008301846141e4565b81810360208301526171ad81617164565b905092915050565b6000610140820190506171cb600083018d6157db565b6171d8602083018c6141e4565b6171e5604083018b614a66565b6171f2606083018a614a66565b6171ff60808301896141e4565b61720c60a08301886141e4565b61721960c08301876141e4565b61722660e08301866141e4565b6172346101008301856141e4565b617242610120830184614a66565b9b9a5050505050505050505050565b7f414131302073656e64657220616c726561647920636f6e737472756374656400600082015250565b6000617287601f83614c32565b915061729282617251565b602082019050919050565b60006040820190506172b260008301846141e4565b81810360208301526172c38161727a565b905092915050565b7f4141313320696e6974436f6465206661696c6564206f72204f4f470000000000600082015250565b6000617301601b83614c32565b915061730c826172cb565b602082019050919050565b600060408201905061732c60008301846141e4565b818103602083015261733d816172f4565b905092915050565b7f4141313420696e6974436f6465206d7573742072657475726e2073656e646572600082015250565b600061737b602083614c32565b915061738682617345565b602082019050919050565b60006040820190506173a660008301846141e4565b81810360208301526173b78161736e565b905092915050565b7f4141313520696e6974436f6465206d757374206372656174652073656e646572600082015250565b60006173f5602083614c32565b9150617400826173bf565b602082019050919050565b600060408201905061742060008301846141e4565b8181036020830152617431816173e8565b905092915050565b600060408201905061744e60008301856157db565b61745b60208301846157db565b939250505056fea264697066735822122084edb29b4599c2eaa92cb060a7a49f0f46adb87609b37a53be7f9be8bb3bf2bb64736f6c634300080f0033608060405234801561001057600080fd5b50610342806100206000396000f3fe608060405234801561001057600080fd5b506004361061002b5760003560e01c8063570e1a3614610030575b600080fd5b61004a6004803603810190610045919061017b565b610060565b6040516100579190610209565b60405180910390f35b60008083836000906014926100779392919061022e565b9061008291906102ad565b60601c905060008484601490809261009c9392919061022e565b8080601f016020809104026020016040519081016040528093929190818152602001838380828437600081840152601f19601f8201169050808301925050505050505090506000602060008351602085016000875af1905060005193508061010357600093505b50505092915050565b600080fd5b600080fd5b600080fd5b600080fd5b600080fd5b60008083601f84011261013b5761013a610116565b5b8235905067ffffffffffffffff8111156101585761015761011b565b5b60208301915083600182028301111561017457610173610120565b5b9250929050565b600080602083850312156101925761019161010c565b5b600083013567ffffffffffffffff8111156101b0576101af610111565b5b6101bc85828601610125565b92509250509250929050565b600073ffffffffffffffffffffffffffffffffffffffff82169050919050565b60006101f3826101c8565b9050919050565b610203816101e8565b82525050565b600060208201905061021e60008301846101fa565b92915050565b600080fd5b600080fd5b6000808585111561024257610241610224565b5b8386111561025357610252610229565b5b6001850283019150848603905094509492505050565b600082905092915050565b60007fffffffffffffffffffffffffffffffffffffffff00000000000000000000000082169050919050565b600082821b905092915050565b60006102b98383610269565b826102c48135610274565b92506014821015610304576102ff7fffffffffffffffffffffffffffffffffffffffff000000000000000000000000836014036008026102a0565b831692505b50509291505056fea2646970667358221220aad5c5384b46ebec088fad3077e9db00293a8af85a46ecd458849ae70ba64ed464736f6c634300080f0033",
  "linkReferences": {},
  "deployedLinkReferences": {}
}