{
  "_format": "hh-sol-artifact-1",
  "contractName": "SafeAccountFactory",
  "sourceName": "contracts/4337/samples/gnosis/SafeAccountFactory.sol",
  "abi": [
    {
      "inputs": [
        {
          "internalType": "contract SafeProxyFactory",
          "name": "_proxyFactory",
          "type": "address"
        },
        {
          "internalType": "address",
          "name": "_safeSingleton",
          "type": "address"
        },
        {
          "internalType": "contract EIP4337Manager",
          "name": "_eip4337Manager",
          "type": "address"
        }
      ],
      "stateMutability": "nonpayable",
      "type": "constructor"
    },
    {
      "inputs": [
        {
          "internalType": "address",
          "name": "owner",
          "type": "address"
        },
        {
          "internalType": "uint256",
          "name": "salt",
          "type": "uint256"
        }
      ],
      "name": "createAccount",
      "outputs": [
        {
          "internalType": "address",
          "name": "",
          "type": "address"
        }
      ],
      "stateMutability": "nonpayable",
      "type": "function"
    },
    {
      "inputs": [],
      "name": "eip4337Manager",
      "outputs": [
        {
          "internalType": "contract EIP4337Manager",
          "name": "",
          "type": "address"
        }
      ],
      "stateMutability": "view",
      "type": "function"
    },
    {
      "inputs": [
        {
          "internalType": "address",
          "name": "owner",
          "type": "address"
        },
        {
          "internalType": "uint256",
          "name": "salt",
          "type": "uint256"
        }
      ],
      "name": "getAddress",
      "outputs": [
        {
          "internalType": "address",
          "name": "",
          "type": "address"
        }
      ],
      "stateMutability": "view",
      "type": "function"
    },
    {
      "inputs": [],
      "name": "proxyFactory",
      "outputs": [
        {
          "internalType": "contract SafeProxyFactory",
          "name": "",
          "type": "address"
        }
      ],
      "stateMutability": "view",
      "type": "function"
    },
    {
      "inputs": [],
      "name": "safeSingleton",
      "outputs": [
        {
          "internalType": "address",
          "name": "",
          "type": "address"
        }
      ],
      "stateMutability": "view",
      "type": "function"
    }
  ],
  "bytecode": "0x60e06040523480156200001157600080fd5b50604051620010b4380380620010b48339818101604052810190620000379190620001d0565b8273ffffffffffffffffffffffffffffffffffffffff1660808173ffffffffffffffffffffffffffffffffffffffff16815250508173ffffffffffffffffffffffffffffffffffffffff1660a08173ffffffffffffffffffffffffffffffffffffffff16815250508073ffffffffffffffffffffffffffffffffffffffff1660c08173ffffffffffffffffffffffffffffffffffffffff16815250505050506200022c565b600080fd5b600073ffffffffffffffffffffffffffffffffffffffff82169050919050565b60006200010e82620000e1565b9050919050565b6000620001228262000101565b9050919050565b620001348162000115565b81146200014057600080fd5b50565b600081519050620001548162000129565b92915050565b620001658162000101565b81146200017157600080fd5b50565b60008151905062000185816200015a565b92915050565b6000620001988262000101565b9050919050565b620001aa816200018b565b8114620001b657600080fd5b50565b600081519050620001ca816200019f565b92915050565b600080600060608486031215620001ec57620001eb620000dc565b5b6000620001fc8682870162000143565b93505060206200020f8682870162000174565b92505060406200022286828701620001b9565b9150509250925092565b60805160a05160c051610e206200029460003960008181610118015281816104aa0152818161053d01526105b70152600081816101b60152818161032501526103bb01526000818161017a015281816102910152818161038a01526103df0152610e206000f3fe608060405234801561001057600080fd5b50600436106100575760003560e01c80630e8ac4881461005c5780635fbfb9cf1461007a5780638cb84e18146100aa578063ac7d146b146100da578063c10f1a75146100f8575b600080fd5b610064610116565b60405161007191906106ee565b60405180910390f35b610094600480360381019061008f9190610791565b61013a565b6040516100a191906107e0565b60405180910390f35b6100c460048036038101906100bf9190610791565b61024b565b6040516100d191906107e0565b60405180910390f35b6100e26103b9565b6040516100ef91906107e0565b60405180910390f35b6101006103dd565b60405161010d919061081c565b60405180910390f35b7f000000000000000000000000000000000000000000000000000000000000000081565b600080610147848461024b565b905060008173ffffffffffffffffffffffffffffffffffffffff163b90506000811115610178578192505050610245565b7f000000000000000000000000000000000000000000000000000000000000000073ffffffffffffffffffffffffffffffffffffffff16631688f0b97f00000000000000000000000000000000000000000000000000000000000000006101de88610401565b876040518463ffffffff1660e01b81526004016101fd939291906108df565b6020604051808303816000875af115801561021c573d6000803e3d6000fd5b505050506040513d601f19601f82011682018060405250810190610240919061096d565b925050505b92915050565b60008061025784610401565b905060008180519060200120846040516020016102759291906109e6565b60405160208183030381529060405280519060200120905060007f000000000000000000000000000000000000000000000000000000000000000073ffffffffffffffffffffffffffffffffffffffff166353e5d9356040518163ffffffff1660e01b8152600401600060405180830381865afa1580156102fa573d6000803e3d6000fd5b505050506040513d6000823e3d601f19601f820116820180604052508101906103239190610b38565b7f000000000000000000000000000000000000000000000000000000000000000073ffffffffffffffffffffffffffffffffffffffff1660405160200161036b929190610bbd565b60405160208183030381529060405290506103ae8282805190602001207f0000000000000000000000000000000000000000000000000000000000000000610644565b935050505092915050565b7f000000000000000000000000000000000000000000000000000000000000000081565b7f000000000000000000000000000000000000000000000000000000000000000081565b60606000600167ffffffffffffffff8111156104205761041f610a1c565b5b60405190808252806020026020018201604052801561044e5781602001602082028036833780820191505090505b509050828160008151811061046657610465610be5565b5b602002602001019073ffffffffffffffffffffffffffffffffffffffff16908173ffffffffffffffffffffffffffffffffffffffff168152505060006001905060007f000000000000000000000000000000000000000000000000000000000000000073ffffffffffffffffffffffffffffffffffffffff166370b8a01d6040518163ffffffff1660e01b8152600401602060405180830381865afa158015610513573d6000803e3d6000fd5b505050506040513d601f19601f820116820180604052508101906105379190610c29565b905060007f000000000000000000000000000000000000000000000000000000000000000060405160240161056c91906106ee565b60405160208183030381529060405263d041593b60e01b6020820180517bffffffffffffffffffffffffffffffffffffffffffffffffffffffff8381831617835250505050905083837f0000000000000000000000000000000000000000000000000000000000000000838560008060006040516024016105f4989796959493929190610d5e565b60405160208183030381529060405263b63e800d60e01b6020820180517bffffffffffffffffffffffffffffffffffffffffffffffffffffffff8381831617835250505050945050505050919050565b6000604051836040820152846020820152828152600b810160ff815360558120925050509392505050565b600073ffffffffffffffffffffffffffffffffffffffff82169050919050565b6000819050919050565b60006106b46106af6106aa8461066f565b61068f565b61066f565b9050919050565b60006106c682610699565b9050919050565b60006106d8826106bb565b9050919050565b6106e8816106cd565b82525050565b600060208201905061070360008301846106df565b92915050565b6000604051905090565b600080fd5b600080fd5b60006107288261066f565b9050919050565b6107388161071d565b811461074357600080fd5b50565b6000813590506107558161072f565b92915050565b6000819050919050565b61076e8161075b565b811461077957600080fd5b50565b60008135905061078b81610765565b92915050565b600080604083850312156107a8576107a7610713565b5b60006107b685828601610746565b92505060206107c78582860161077c565b9150509250929050565b6107da8161071d565b82525050565b60006020820190506107f560008301846107d1565b92915050565b6000610806826106bb565b9050919050565b610816816107fb565b82525050565b6000602082019050610831600083018461080d565b92915050565b600081519050919050565b600082825260208201905092915050565b60005b83811015610871578082015181840152602081019050610856565b83811115610880576000848401525b50505050565b6000601f19601f8301169050919050565b60006108a282610837565b6108ac8185610842565b93506108bc818560208601610853565b6108c581610886565b840191505092915050565b6108d98161075b565b82525050565b60006060820190506108f460008301866107d1565b81810360208301526109068185610897565b905061091560408301846108d0565b949350505050565b60006109288261066f565b9050919050565b600061093a8261091d565b9050919050565b61094a8161092f565b811461095557600080fd5b50565b60008151905061096781610941565b92915050565b60006020828403121561098357610982610713565b5b600061099184828501610958565b91505092915050565b6000819050919050565b6000819050919050565b6109bf6109ba8261099a565b6109a4565b82525050565b6000819050919050565b6109e06109db8261075b565b6109c5565b82525050565b60006109f282856109ae565b602082019150610a0282846109cf565b6020820191508190509392505050565b600080fd5b600080fd5b7f4e487b7100000000000000000000000000000000000000000000000000000000600052604160045260246000fd5b610a5482610886565b810181811067ffffffffffffffff82111715610a7357610a72610a1c565b5b80604052505050565b6000610a86610709565b9050610a928282610a4b565b919050565b600067ffffffffffffffff821115610ab257610ab1610a1c565b5b610abb82610886565b9050602081019050919050565b6000610adb610ad684610a97565b610a7c565b905082815260208101848484011115610af757610af6610a17565b5b610b02848285610853565b509392505050565b600082601f830112610b1f57610b1e610a12565b5b8151610b2f848260208601610ac8565b91505092915050565b600060208284031215610b4e57610b4d610713565b5b600082015167ffffffffffffffff811115610b6c57610b6b610718565b5b610b7884828501610b0a565b91505092915050565b600081905092915050565b6000610b9782610837565b610ba18185610b81565b9350610bb1818560208601610853565b80840191505092915050565b6000610bc98285610b8c565b9150610bd582846109cf565b6020820191508190509392505050565b7f4e487b7100000000000000000000000000000000000000000000000000000000600052603260045260246000fd5b600081519050610c238161072f565b92915050565b600060208284031215610c3f57610c3e610713565b5b6000610c4d84828501610c14565b91505092915050565b600081519050919050565b600082825260208201905092915050565b6000819050602082019050919050565b610c8b8161071d565b82525050565b6000610c9d8383610c82565b60208301905092915050565b6000602082019050919050565b6000610cc182610c56565b610ccb8185610c61565b9350610cd683610c72565b8060005b83811015610d07578151610cee8882610c91565b9750610cf983610ca9565b925050600181019050610cda565b5085935050505092915050565b6000819050919050565b6000610d39610d34610d2f84610d14565b61068f565b61075b565b9050919050565b610d4981610d1e565b82525050565b610d588161091d565b82525050565b6000610100820190508181036000830152610d79818b610cb6565b9050610d88602083018a6108d0565b610d9560408301896107d1565b8181036060830152610da78188610897565b9050610db660808301876107d1565b610dc360a08301866107d1565b610dd060c0830185610d40565b610ddd60e0830184610d4f565b999850505050505050505056fea26469706673582212207a48205c5a4b3ef773815b0b4af1ca450396cd21b2d202f5fe041a5e19e9f2bc64736f6c634300080f0033",
  "linkReferences": {},
  "deployedLinkReferences": {}
}